:020000040000FA
:2000000000500020E9000000E1000000C9000000E5000000E5000000E5000000000000002E
:20002000000000000000000000000000E5000000E500000000000000E5000000E50000002C
:20004000B91C0000E5000000D9BA0000E500000015130000C5170000E5000000E5000000A0
:20006000E500000001BB0000E5000000E5000000E5000000E5000000E5000000E500000081
:20008000E5000000E5000000E5000000E5000000E5000000E5000000E5000000E500000038
:2000A000E5000000E5000000E5000000E5000000E5000000E5000000E5000000E500000018
:2000C000E5000000F12C0000044B1A68B2F5806F03D01B689B0500D4FEE7704728ED00E05C
:2000E000FEE700BFFEE700BF08B509F061FA0F4B0F4A93420CD2181D0332121A22F0030294
:200100000C49024451F8040B43F8040B9342F9D109480A494FF000028842B8BF40F8042B76
:20012000FADB00F0D7FAFFF7CFFF08BD0000002074020020F8E1000078020020143500200E
:20014000BDF80830BDF80010014802F017BE00BFF8DC000070B5048888B0712C054640D069
:20016000742C37D024B1002303202B8008B070BD00F056FAFD2303A845490393CDE9044400
:20018000069404F00FFA2146012203A804F0CAF8404802F0F3FD404C04F16006237E1BB11F
:2001A00094F82A30012B37D92034B442F6D140F2D2433A4A194600923948002207F0D8FBE3
:2001C0004FF4F051374803F065FB712301202B8008B070BD344803F07BFB28BB012008B0E3
:2001E00070BD304803F074FB0028F7D02D4803F05BFB02F089FC03462C492B48A1FB0321E3
:20020000090BC1EB0111A3EB412189B203F042FB742301202B80A9E704F11A0007F0BCF804
:200220000A2001F031F9BFE7BE2000F001FA044640B31F4802F0A2FD1E4E204607F0ACF868
:200240000A2001F021F932681B4903A802F0B4FD336803A8013333600DF0C4FC421C92B2B1
:2002600003A923460E4807F073FB144801F014F901F0E4F84FF080524FF480410E2001F053
:20028000CBFA70E7BE210E4802F078FDEDE700BF082C002048DC0000902A0020410100007F
:2002A000C4020020A4020020B4020020898888885CDC0000A002002070DC000094DC0000E5
:2002C0007CDC000070B5224803F05CFED0B1044604E0204603F0CCFE044698B1251D2846D5
:2002E00003F0C0FD0028F4D0637F2846013363774FF4164103F0A2FD204603F0B9FE04467E
:200300000028EBD1134803F03DFE0446F0B1114D114E04E0204603F0ABFE0446B0B1201DFA
:2003200003F0A0FD0028F5D02146284603F07AFE2146304603F0D0FE284603F023FE044696
:20034000204603F095FE04460028E8D170BD00BFF0020020E80200201000002008B5084841
:2003600003F00CFE074803F009FE074803F084FE0021064803F060FC0122054B1A7008BDF3
:20038000E8020020F0020020100000201C000020602A00202DE9F04F058899B00446BDB148
:2003A00040F26D139D420DD1882936D0924B1B788B4200F09D8040F26D130120238019B08E
:2003C000BDE8F08F00230320238019B0BDE8F08F29464BF2F00007F0A3F84BF2F006874BF0
:2003E0002A46186006823146284607F08DF84FF470510682824803F04DFA02F085FB0346E1
:2004000080498148A1FB0321490BC1EB0111A3EB812189B203F03EFACDE7794B9A4200F09E
:20042000C280794B9A42C1D10027744B7748D3F800908DF80D7003F0A5FD0346002800F050
:20044000CB800DF10C08BA46454602261A4652F80CEF14369068D2F804C0D168C5F80A0017
:20046000C5F802E0C5F806C0C5F80E101A7F85F814A0AA7485F813A05A7F18466A7503F05E
:20048000F7FD522E07F10107034600F09F8014350028DBD1FFF716FF5D4803F073FDF8B1B7
:2004A0004FF0000A08EB060501E01435C0B1034653F80CCF143659689A68DB68C5F800C01E
:2004C0006960AA60EB60037F85F812A02B7485F811A0437F0137EB7403F0CAFD3E2EE4DD40
:2004E0003246414648468DF80C7006F0B7FF62E7484BD3F8008098F800A0BAF1000F3FF47E
:200500005AAF0026DFF80891DFF810B198F8125098F81570FFF7D6FE484603F033FD0346D9
:2005200028B90FE0184603F0A3FD034650B11A7FAA42F7D15A7FD21B120622D40136B24561
:20054000E4D138E7584603F0A9FD0746A8B1012243460577427753F8020F07F10C055968E3
:200560009A68DB680FC5381D4FF4963103F066FC3946484603F008FDE0E7274800F08CFFF8
:20058000DCE75F77181D4FF49631019303F056FC019B4846194603F045FD019B4846194663
:2005A00003F01EFDCAE7104603F07EF902F0ACFA0246144B1448A3FB02135B0BC3EB031344
:2005C000A2EB832399B203F065F9F4E6FFF77AFE0F4803F0D7FC83E70190FFF773FE0C4831
:2005E00003F0D0FC00283FF4E6AE019B02261F460DF10C0854E700BF12350020EC020020A3
:20060000F40200208988888814050020F0020020E80200200430002050DD0000100000209D
:20062000024B1B7803B17047FFF798BE602A002010B50D4B04461B7893B1FFF743FEFFF70E
:2006400041FE0A4803F09EFC18B907E003F010FD20B1037FA342F9D10C3010BD002010BDCC
:20066000FFF77CFEE9E700BF602A0020E8020020F0B5002706463C463D4683B0304600F011
:20068000F7F90195019B9C4206DD00BF019B01330193019BA342F8DB304600F0F3F9019518
:2006A000019BC4F5C8749C4206DD00BF019B01330193019BA342F8DB0137B7F5487F06D0F0
:2006C000B7F5C87FCCBFC7F548743C46D6E703B0F0BD00BF2DE9F041744C86B023680121DC
:2006E00073485B6898470122236811461B687048984709F0A3FA01F0F7FA01F08FFA00F09C
:20070000DBF901F0C7FA00F0A9F9012369496A486A4A03600B6018461368FFF7A9FF09F047
:2007200091FA00F06BFD00F0D7FC03F059FB00F035FE03F0A5FA41F2342002F0EBF901F0C9
:200740000DF803F0EFFB5E4800F0A6FE4BF2AC7200215C4802F012FB5B4800F09DFE09F037
:2007600029F95A4C5A4D10F0040F14BF27462F4609F028F901280CBF26462E4609F01AF948
:2007800010F0020F14BFA046A84609F013F910F0080F08BF2C4632464346009439464D48A3
:2007A00002F0ECFA00214C4803F046FA03F01EF902F0B2FF0220FFF75BFF484802F0DEFA00
:2007C000474B484C186800F067FE474802F0D6FA464B186800F060FE454802F0CFFA21689D
:2007E000444802F0CBFAE469A04720B1A0470146414802F0C3FA00260A2000F045FE09F0CF
:2008000051FE04A808213D4D3D4F039600F07CFE9DF816209DF8174004AB03CB44EA022413
:20082000D7F82C802860696002204AF6CD31C04721460320C04719210120C047082204A9BB
:200840007B6B0B209847BB6A03A90120984703992C4802F093FA2C4B21462C481C8002F068
:200860008DFA2B4B6A6829685A60196009F0EEF93146284803F0E0F90220FFF7F9FE3146CC
:20088000254803F0D9F9254802F03AFF00F094FD0120FFF7EDFE03F00DFA044600F0C0FD1A
:2008A00014F0FF0FF7D101F085F8F4E7D801001000400340080009400C4009402C2009402E
:2008C000F4DD00001CDE000034DE0000ECDD0000F0DD000048DE0000E00000207CDE000025
:2008E000BCE000006CE1000084DE000048E100008CDE000094DE000098DE0000E8340020F6
:200900005CDF0000BCDE0000502A0020D0DE0000082C0020680100202C00002040DC000075
:200920002DE9F04104880646772C2FD07E2C26D024B1002303203380BDE8F08103F074F912
:200940002D4F2E4B2E4D3A6818702C6082B12346A0462C4C04F8038093680021802098475D
:200960002B68013357F823202B60002AF2D1DAB2254B1A70772333800120BDE8F0811F4B32
:200980001B788B421CD00120BDE8F081DFF878801B4D98F800201D4F00233B602B60002A0E
:2009A000E8D0184CE256002A18DB2B6898F80020013393422B60F5DB3B68002BECD1D9E7D4
:2009C0000F4D104CDFF84080104F2B683A68E15C013201F07F01E1543A60E7E7064A074916
:2009E00052F823200978002003F0C0F90028ECD17E23012033809FE7500000201035002068
:200A000028050020842A0020612A00202405002010B40E4B1C78B4B10D4A136898424FF0C6
:200A2000000304D106E052F8041F884202D00133A342F8D107490848CA5C62F07F02CA5456
:200A400010BC03F0BFB92346F4E700BF612A002050000020842A00202C00002008B500F07A
:200A600071F80022014B1A7008BD00BF622A0020034A137803431846137000F07DB800BF02
:200A8000622A0020034A137823EA00031846137000F072B8622A002010B5064C0420236855
:200AA0005B699847236804205B6B98470128F9D110BD00BFB8010010F0B593B009F0BEF860
:200AC0000746FFF7E9FF194B4FF4A0601B68DB6998470121164B174A196013689907FCD555
:200AE00000F0E2F9144801F08DF84822684613490CF056FF009C621C0FD06D46104E3368EF
:200B000020469B6B9847336820469B694FF40051984755F8044F631CF1D10FB113B0F0BD01
:200B200013B0BDE8F04009F08DB800BFB801001028200860282008403C000020E8DE0000F5
:200B4000B4010010094B1A687AB9012210B5084C1A6023680620DB6B984723680720DB6B43
:200B60009847C022034B1A6010BD70472C050020B4010010A0200240C022074B0749087054
:200B80001A60C20744BF402243F8102C830702D58022034B1A607047A0200240632A002005
:200BA000902002408138012808D808B5044B0D201B685B689847C0F3804008BD0020704714
:200BC000B40100108138012808D808B5044B0E201B685B689847C0F3804008BD0020704720
:200BE000B401001028B1012806BF054BD86800207047044B18686FEA503000F001007047B2
:200C000030050020C020024008B100207047034B18686FEA903000F001007047C02002401C
:200C2000802870B514460AD0812807D1E1B9BDE87040184B10461B685B6B184770BD012391
:200C4000144D154993402A680B60936B204698472B6820460021114A1B689847E0B2104900
:200C6000BDE8704001F000B801230A4D0A4993402A680B60936B204698472B6820461B6819
:200C8000064A002198472B682046BDE870401B6B184700BFB4010010E020024000400720A4
:200CA000BD0C000008B50D22FFF7BAFF012008BD08B50E22FFF7B4FF012008BD0D2838B54C
:200CC0000AD00E2800D038BD4FF08052BDE838404FF4804100F0A0BD0E4C204603F0C2F853
:200CE0000028F0D00421204603F0A8F80A4B1D68C5F3403525B900F03DFAC4E9020538BD39
:200D000000F038FAA368C31AE3600448BDE83840FFF77EBE30050020C020024030DF000065
:200D200030B5042100244FF480151A4A1A4B126883B0ADF8004001920DEB01001D6000F059
:200D4000CFF8E0B10221684600F0EAF8134B1D60D0B19DF80030EF2B04D0C22B02D0204664
:200D600003B030BD9DF80100A0F11103012B0ED9143801288CBF0020012003B030BDFF20C5
:200D8000064B1D6003B030BDFF2003B030BD0120F8E700BF58DF0000A0200240902002403C
:200DA00030B505224FF4801583B0114B02AC04F8042D1D6000F0DAF82046012100F090F8A6
:200DC00020B910E09DF80730DB0706D501210DF1070000F0A5F80028F4D14FF48012054BFB
:200DE0001A6003B030BD034B1D6003B030BD00BFA02002409020024030B583B0FFF7D0FFDE
:200E000008B903B030BDB9224FF480150A240C4B02A800F8012D01211D6000F061F8094B2D
:200E20001D60FFF77DFF631E0028EAD013F0FF04F7D14FF48012034B1A6003B030BD00BF96
:200E4000A02002409020024010B50A2182B0124800F09EF8114B14201B68114CDB6B984707
:200E60004FF48013AB210F4A02A8236000F8011D1360012100F034F808B1FFF791FF4FF401
:200E80008012074B1A60FFF74BFFA0F10100B0FA80F0400902B010BD00093D00B401001035
:200EA00090200240A020024008B5FFF7CDFFFFF7A3FFBDE8084000F0C7B800BF08B5064BFE
:200EC00002201B685B6B9847012809BF034B0020186800F0010008BDB8010010782008408A
:200EE000F0B583B004460E46FFF7E8FF074688B186B10A4D26442B6814F8011B5B684FF064
:200F0000804098472B6801A9DB684FF080409847B442F0D1384603B0F0BD00BFC4010010AB
:200F2000F0B583B004460E46FFF7C8FF0746B8B1B6B10D4D264409E02B684FF08040DB68DF
:200F40009847019B04F8013BB44209D02B6800219B684FF08040984701A90028ECD107469E
:200F6000384603B0F0BD00BFC401001010B582B0FFF7A4FF40B1054C236801A91B694FF035
:200F8000804098470028F7D102B010BDC4010010F0B5254D07462B6885B002205B690E4608
:200FA00098472B6802205B6B984701280446F8D12B684FF48070DB6998471C4B1C4A1C608A
:200FC00013689B07FCD54FF0030C08250023194919480A68044622F00F0200680A60C1F858
:200FE0000CC0CDE900751A46076814494FF08040B847134B29461B6800965D6C09224FF0B7
:20100000FF334FF08040A8470E4A136843F002031360236803A91B694FF080409847002871
:20102000F7D105B0F0BD00BFB8010010282008602820084014000040C4010010006CDC024B
:20104000B40100100400004010B5174B4FF480701B681B6A98470121144B154A1960136872
:201060009B07FCD5134C082023689B6B984723684FF400519B6908209847236809209B6B22
:20108000984723684FF400519B690920984723680A209B6B984723684FF40051BDE8104098
:2010A0009B690A20184700BFB80100102820086028200840B401001010B5064C0420236850
:2010C0005B699847236804205B6B98470128F9D110BD00BFB80100100020002170B51B4A06
:2010E0001B4BC2E900011B6804205B6B9847012801D0FFF7E1FF164B00201B68DB6998479B
:201100000121144B144A196013689B07FCD5134A13491368096823F4807323F00103114C66
:2011200013600B682046104998470423312640F22120012223600D4D0D4903F1864303F52F
:2011400010132E6008601A6070BD00BF78020020B801001028200860282008400C00014020
:20116000C801001000000140002100043C0001400800014010B40949094A0B6814680868A2
:201180008342FAD1DA010023064902EB5462C1E9002310BCD1E90001704700BF0820094094
:2011A0000C2009407802002010B50B490B4A0B68146808688342FAD1DA010023084902EB87
:2011C0005462C1E9002302F08DFB00B910BDBDE8104002F059BB00BF082009400C200940EC
:2011E0007802002010B508F029FD034B1C6808B908F028FD204610BD082009402DE9F041D7
:2012000008F01CFD0124002580464FF480314FF480701A4E1A4B1B4F32683D601C60186024
:2012200019601368284623219847336820461B6824219847336825211B6802209847124AC0
:201240001249136843F4E02313600D6008F000FA0F4B1049104A1B6800F5007008601460DB
:201260003C601B6914209847B8F1000F01D0BDE8F081BDE8F04108F0E5BC00BF84010010D9
:2012800004200940000024430020094008200940B00100101C200940A0022443431E012BC4
:2012A00010B419D9042801D010BC704700231A4610F004001CBF0E4C216013B101210D4B7D
:2012C000196012B101220C4B1A600028ECD001220A4B1A6010BC7047012803BF084A0346FF
:2012E0001160002310F00202E2D0064C2160DFE72020094080022443A0022443C002244367
:20130000182009401C200940014B1868704700BF4005002008B50AF0B3F8184B1860FFF7ED
:2013200043FF174B1B686BB9164B1B68E3B9164B1B6833B100204FF480321449144B0860E1
:201340001A6008BD4FF48072114B1A6008F080F900F205200F4B20F4FF7020F00100186055
:20136000084B1B68002BE2D0002001220A49084B08601A6002F04EFDD9E700BF40050020CE
:20138000A000244380002443C0002443C0022443042009401C2009408002244301220349C5
:2013A0000348044B08601A60704700BF00000840FFFF0F00000C084038B508F03FFC124A16
:2013C000B0FA80F01368012B0BD001230F4C104D1049114A400925600B601360C3070FD488
:2013E00038BD0E4C09490A4D146040090D60094C094940F0020023600B601360C307EFD503
:20140000BDE8384008F01EBC000C084000000840FFFF0F000C0008400401004351E5CC1A7C
:20142000012203490348044B08601A60704700BF00000840FFFF0F000C00084038B508F0BD
:20144000FDFB0E4BB0FA80F01A68012A06D000220B4B40091A60C3070BD438BD0024094D4B
:201460000749400940F002001D600C601A60C307F3D5BDE8384008F0E5BB00BF000C0840E4
:201480000401004351E5CC1A10B50446C0B200F079F9204610BD00BF70B506460024451E1B
:2014A00004E015F8010F00F06DF9013430460CF099FBA042F5D80A2000F064F900F076F915
:2014C0000128FBD0204670BDF8B50646B0B10078B0B1B9B101317518741C04E014F8010B9D
:2014E00030B1AC4204D000F04DF9A71B002CF5D100F05CF90128FBD03846F8BD0746F7E7C8
:201500000746F5E70F46F3E710B40B4B0B4C1A780133FF2A0DD1A342F9D1094A39B11144F4
:20152000013801390B78914200F8013FF9D110BC7047014AF2E700BFC8FF0100D0FF0100E2
:20154000F012005038B50C4D02202B685B6998472B6802205B6B984701280446F8D12B6872
:201560004FF40070DB699847044B054A1C6013689B07FCD538BD00BFB80100102820086060
:20158000282008402DE9F04340F2F275DFF8DC8083B0FFF7D7FFD8F800302A4EDB682A487A
:2015A00098473368294C5B69152098472368DFF8C090274F23F4FE63D9F8002023F00203BB
:2015C00023603D60D36B03209847082012222149D9F8003008600092D3F8409003221323F4
:2015E00002211948C847D8F800206023D2F8048019494FF4E1321448C047142140F2011301
:2016000040F2013C154A164811600268154942F0100202600868144A002818BF63461360D6
:201620003D600B6853B115202368326843F050032360136903B0BDE8F043184703B0BDE875
:20164000F08300BFB001001000100040381000404410004090200240006CDC02341000406B
:201660002C1000404405002030100040D0010010B401001008B5064B02201B685B6B984707
:20168000012809BF034B0020186800F0010008BDB80100106C20084038B50446FFF7EAFF02
:2016A00018B1244A13681907FCD4032C03D0224B1B6803B138BDFFF7DDFFA0B11F4B2048F8
:2016C0001B68DB6898471F4B15201B685B69984740F2F2701C4A1D49136823F4FE6323F03A
:2016E0000203136008601A4D4FF400702B681B6A9847032C09D12B684FF400709B6A9847C6
:201700002B684FF400701B6B98470121114B124A196013689B07FCD5032000F08FFA02201F
:2017200000F08CFA132000F089FABDE83840122000F084BA1810004044050020D00100105E
:2017400000100040B00100103810004044100040B8010010282008602820084010B508F096
:201760006DFA0446054800F04DFA0022044B1A6004B110BDBDE8104008F064BA5C00002040
:201780004405002010B50446FFF774FF08B9FFF7F9FE044B2146BDE810401B680248DB69FE
:2017A000184700BFD00100100010004008B5FFF761FF18B1024B1868C0F3C00008BD00BF3A
:2017C0001810004070B5FFF7BDFE40F2F2710C4B0C4A1B68116013F0500F0DD00A4C0B4EA7
:2017E0000B4D06E0336828461B699847094B1B681BB92368DB06F5D570BDC0B29847EFE70A
:20180000401000404410004018100040D001001000100040440500202DE9F04740230027CB
:2018200042F0005282B042EA0105CDE90073064608F004FA01204FF480714FF48032434B7D
:201840003C461F60424B434F186019601A603B6820463F211B6801349847042CF7D10024E1
:201860003C4F3B6820463F219B6801349847032CF7D1394B1B68FFF7D3FD384802F082FBAA
:20188000044630B1A3680BB1032098472468002CF8D1731C0AD00021314B324A43EA86039B
:2018A0001960136830462A461B689847002401272D4EDFF8E4903368C9F800409B69072013
:2018C0009847684609F0F2FD00F086FA00F034FA264827490368326823F0030303600B6833
:2018E000244D23F00F030B6093693820984738462C6009F0FBFDDFF8A4A01F481F4A204965
:20190000204B2C60DFF85080CAF80040076014601D4A0C60C9F800401C60D8F800301B4998
:201920001368096823F0030313604B68184803219847184A33682C60CAF8004017609B6B11
:20194000D8F80020984702B0BDE8F0870000244304200940840100102C200940480500207F
:20196000001A4442B4010010B8010010001009400810094040100940880104434001224370
:20198000440122430800094024220840D801001000400340181009400C40094020042243C3
:2019A000034A136823F00403136030BF704700BF10ED00E070B508F041F902F0CDF918B1B8
:2019C000BDE8704008F03EB97F4802F0DBFA0225044648B1636823B19847854228BF054654
:2019E000EDB22468002CF5D109F04AFD774B06461B6843B1764B1B681B1A022B38D4A3F2BE
:201A00008F23002B3DDB01F06DFFF8B101F072FF0446FFF7AFFB241A002CD1DDFFF774FC01
:201A200000EB4420831BA3F28F23002B31DA013D012DC5D8831B082B00F1B58006F5803190
:201A40000B1A11EA230138BF014604E0012D40F0AD8006F580310220FFF720FC5D4A136893
:201A600023F00403136030BFBDE8704008F0EAB8002D00F0A38001F035FF0028A0D00025D9
:201A8000C4E7022DBFD101F02DFF0028E1D00125BCE7012DCED0022D92D101462846FFF714
:201AA000FDFB494802F06EFA0446002870D00625A3680BB1022098472369246825EA03056F
:201AC000002CF5D1FFF7ACFC6B0764D425B1424B28461B689B69984700F07EF9002009F015
:201AE00005FD3E493E4A0B683B4823F003030B601368016843F00F0313608B693920984793
:201B00000023384A38491360184613600B6007F0C5FD062D43D0354C354D364E2B6823684C
:201B2000326823F0030323605368032132489847294B1B689B6B98472B6807F0CBFE0021E7
:201B40002E4A336811602C485B6801219847012123682B4A43F00303236011602B6807F0F0
:201B6000EBFE09F08FFCFFF71FFBFFF759FC164802F008FA044628B1E36803B198472468BE
:201B8000002CF9D108F05EF8BDE8704008F05AB8FFF746FC06250022194B1A6097E702209F
:201BA00007F09EFFB7E706F1080154E7022D7FF407AF711E2846FFF771FB72E701F092FE27
:201BC00000287FF423AFFBE648050020800224431820094010ED00E0B801001000100940E1
:201BE000081009404010094020042243242208402C200940D801001000400340800104430B
:201C00000C4009400146014802F0BEB9480500200146014802F006BA4805002010B5054808
:201C200002F0ACF9BDE81040034B20211B6803201B6818474805002084010010431C0ED0C2
:201C400010B5074B04461B684FF4C0421B68002198470022034B43EA84031A6010BD7047B6
:201C6000B4010010001A444238B504460D4607F0E5FF01230549064AA3400B6042F82450DC
:201C800000B138BDBDE8384007F0DCBFE02002404C0500200021064B03F1800243F8041FF6
:201CA0009342FBD1034B10201B681B69184700BF48050020B0010010F8B500240126084B67
:201CC000084F1D681D6006FA04F32B42E0B203D057F8243003B198470134202CF3D1F8BDB2
:201CE000E02002404C0500200022412300B585B002A8CDE9022309F0D9FB042007F08EFFC7
:201D0000032810D00321042007F060FF042007F085FF0328FAD100901C234FF040520021C4
:201D2000044807F00BFF02A809F016FC05B05DF804FB00BF00A00C400022412300B583B07F
:201D40006846CDE9002309F0B1FB042007F066FF022808D00221042007F038FF042007F045
:201D60005DFF0228FAD1684609F0F6FB03B05DF804FB00BF0022412300B583B06846CDE9E2
:201D8000002309F093FB012007F048FF012803D00121032007F01AFF684609F0DDFB03B0B7
:201DA0005DF804FB0022412300B583B06846CDE9002309F07BFB012007F030FF012803D028
:201DC000044B986B07F056FC684609F0C5FB03B05DF804FB4800001010B54123002482B023
:201DE0006846CDE9004309F061FB0320214607F0EDFE012007F012FF18B1044B986B07F040
:201E000039FC684609F0A8FB02B010BD4800001008B509F0E1FB30B1044B5B88022B14BFC7
:201E20000220012008BD022008BD00BFCC05002030B583B009F0D0FB18B1134C6388022BE7
:201E400008D001A9104809F0CFFB012805D0002003B030BD012003B030BD09F011FB0A4C0B
:201E600000F1400504E009F00BFB401B002809DA60880228F7D1A0F10200B0FA80F0400913
:201E800003B030BD6088F6E7CC05002010B5012488B002A840F60202182109F009FE114A52
:201EA0009DF81830126803F0F80391880E4A6FF3C303ADF81A1002A801A98DF818308DF8CF
:201EC0001640079209F090FBA04202D0002008B010BD02A809F0D4FB001BB0FA80F0400946
:201EE00008B010BDB00000208400002008B5FFF7CDFF012801D0002008BDFFF799FFC0B28B
:201F000008BD00BFF8B50E4D00200E4F2C680E4E06E02379022B06D024682B68A34209D066
:201F20002379032BF5D13B782BB124682B680120A342F5D1F8BD304601F044FF0120EBE745
:201F4000D4080020662A00201802002008B5B4290A46014628BFB42202480BF021FD00202A
:201F600008BD00BFE208002030B583B009F09AFD044609F031FB08B903B030BD01A90A485F
:201F800009F032FB0128F7D109F07AFA00F1400504E009F075FA401B0028EDDA638803F40F
:201FA0004063002BF5D0E7E7010001040B280BD00C2801D001207047042A07D131B10B4B91
:201FC00000201B680B607047082A01D0022070470029FBD0064A4B1E073112F8010903F86C
:201FE000010F8B42F9D10020704700BF54060020FB05002010B542F20343002484B001A9C9
:2020000002A8CDF80A40ADF80E40ADF8083009F0EBFA20B19DF90A30803302D0204604B019
:2020200010BD9DF80C0000F00C00A0F10400B0FA80F0400904B010BD30B583B009F0CCFAE6
:2020400018B1184C6388022B05D0012003B030BDFFF7D0FF18B109F0BFFA0028F8D101A9CA
:20206000114809F0C1FA09F00BFA00F1400507E06088022809D109F003FA401B002803DAF6
:2020800009F0AAFA0028F3D1608842F202439842DBD042F20743C01AB0FA80F0400903B063
:2020A00030BD00BFCC050020010001040B2810B502D00124204610BD082A13D191B1114AA8
:2020C00001F1080313F8010D8B4202F8010BF9D109F082FA18B10C4B5B88022B05D00024AF
:2020E000204610BD0224204610BDFFF7A5FF012814BF03240024FFF79BFE012818BF0324BD
:20210000D8E700BFF4050020CC05002030B585B009F062FAF0B1114B5B88022B1AD14FF091
:202120000002002442F2034563F301028DF80C209DF80C0000F00303022B0CD101A902A8FE
:20214000CDF80A40ADF80E40ADF8085009F04CFA0028EDD1FF2005B030BD00BFCC050020EA
:202160002DE97848044609F037FA20B1184B5B88022B02D00020BDE8788807F05FFD05469C
:202180003CB1144A144B12681A609DB10120BDE87888104B4FF0000C1E6800230E4C16F1DD
:2021A000804022684CF10001994208BF904205D32660EAE707F046FD0120DCE709F060F984
:2021C000064A07491368086001331360F0E700BFCC050020043004405C06002060060020CE
:2021E0005806002008B509F0B9FC012806D009F0F3F918B1094B5B88022B01D0002008BD2F
:2022000009F0EAF918B1FFF7F5FE0028F6D1FFF77DFFFF28F2D0C0F3801008BDCC050020ED
:2022200008B502E0FFF7E6FE18B109F0D5F90028F8D1FFF701FF09F023FBFFF7CDFD0022B5
:202240000C4B0D4819794280022908BF1A710B4B1A79022A04BF00221A71094B1A79022A69
:2022600004BF00221A71074B1A79022A04BF00221A7108BD94060020CC05002024070020B2
:20228000B40700204408002008B509F067FC012801D0FFF7C5FF012008BD00BFF8B509F0DF
:2022A0005DFC01282ED0FFF765FD09F095F918B11D4B5B88022B25D0012588241B4A1C48EE
:2022C000577946791B491C4B65F3830765F38306577146714F795E7965F3830765F3830600
:2022E00010600160C480D480CC804F710B601A60DC805E71FFF756FD09F062FBA84203D0FD
:202300000020F8BD0120F8BD0C4B1878003018BF012009F06FFBFFF7B9FD0128F0D1BDE865
:20232000F840FFF785BD00BFCC0500209406002024070020B407002044080020662A002081
:2023400030B585B0072800F2A980DFE800F0101F2A2D305A5F04524C217709F03DF910B1C9
:202360006388022B79D00024204605B030BD012900F08480019100296BD109F0EFFB0128AF
:20238000F1D0FFF74DFF01990C46EDE7A1F10B030F2B5ED8424CC9B2A37B8B42E3D0A173AF
:2023A000DBE73F4C6186D8E73D4C2186D5E731F007024ED13A4CC1F34005237E394861F300
:2023C0000003DBB243F0020365F38203657E03F0870362F3C71362F3C7150278C1F38001E9
:2023E0009142657623760170B7D1228B2E4B03A918465A8009F0F8F8002814BF0024032464
:20240000B2E731F0010324D1CCB2ADE701F115031A2B1ED86FF014030C24244A01E052F873
:202420003430994230DD14F1FF34F8D209F0D4F8002898D010221D4B02A903EBC404A388D3
:2024400003A8ADF80E30ADF80C20002409F0CCF88AE70224204605B030BDFFF7EDFD012894
:2024600014BF0324002409F0B9FA012812D0FFF7DFFC01283FF478AF032475E7FFF70EFFAD
:2024800001283FF470AFF7E7084B094A03EBC4031360CBE70020FFF763FEE8E7012463E7AE
:2024A000CC050020662A00204C0600209CDF0000B0000020002900F0A380F0B50C4685B056
:2024C000102800F29F80DFE800F00E1B20252A41444A5081879D9D8C909409000523002002
:2024E0000B6005B0F0BD09F077F830B1524B5888A0F10200B0FA80F0400920600020F0E7DC
:202500004D4B00209B7B0B60EBE74B4B00205B8E0B60E6E7484B00201B8E0B60E1E7002327
:20252000454A0B60137E03F001030B60127E520744BF43F002030B60404B1B78002B5DD0A9
:202540000B68002043F004030B60CAE700200860C7E73B4B00201B681B680B60C1E7364B1C
:20256000002093F91C300B60BBE709F035F800284AD0314B5B88022B46D100274FF00003E2
:202580000222002562F38303CDE9025542F203468DF80C300BE001A902A8CDF80A50ADF8C9
:2025A0000E50ADF8086009F01FF8002837D09DF80C3003F00C03082BEDD0002F34D19DF9E4
:2025C0000A302360803319D103208AE71D4B00201B785BB20B6084E71B4B00201B780B608B
:2025E0007FE70B2300200B607BE71A2300200B6077E76FF0140300200B6072E7002070E763
:202600000220704701206CE7FFF748FE012808BF0746B3D06FF07F030320236061E78023FF
:202620008DF80A30002FF5D009F098FA0128C6D0FFF7F6FDC3E700BFCC050020662A0020AA
:20264000B0000020652A0020642A002070B588B0064608F0C1FF002848D03A4B5B88022B17
:2026600044D1002508F00CFF6FF01F04241A07E0FFF7C0FC012843D108F002FFC44241D572
:2026800008F0AAFF0028F3D102A842F60142182109F00EFA00222C4B2C4CF6B28DF8176099
:2026A0002178069304929DF81430891A18BF012162F3030301208DF8143009F0D3F902A829
:2026C00001A908F091FF30B3207801E0002836D0BDF80A3003F44063002BF7D0BDF80A40C4
:2026E000A4B2B4F5105418BF012416E0FFF7D6FD012803D00124204608B070BD0546B1E76D
:202700000028C1D01DB109F029FA012813D10224204608B070BD20780124003018BF0120B3
:2027200009F0B4F9002DE6D009F018FA0128E2D0FFF776FDDFE7FFF773FD0224E8E7FFF7AA
:202740002FF9C1E7CC050020E2080020662A002010B50C46B42C2246014628BFB42204484F
:202760000BF01EF92046BDE81040FFF76FBF00BFE208002010B509F0F1F901281CD008F04A
:202780002BFF18B11B4B5B88022B1BD0FFF786FD012804460AD1FFF7B9FCFF2822D109F060
:2027A000DDF9012809D0FFF73BFD06E009F0D6F9012801D0FFF734FD0124204610BDFFF7F6
:2027C00019FC18B108F008FF0028F8D1FFF79EFCFF28F1D000F0030010F1FF3418BF012490
:2027E000204610BD00F0030010F1FF3418BF0124D5E700BFCC0500202DE9F047594E80465D
:202800000F46356808F03CFE574C241A03E008F037FEC44208D52B79022BF8D0032B06D023
:2028200000242046BDE8F0872B79032BF8D1D6F8009099F80820032A06D999F80850EDB2AC
:20284000A5F10804BC420ADD0024D9F8003089F8084089F8044033602046BDE8F0874046A3
:20286000224609F109010BF09BF8EB1C19F803303E4F5BB23B70043519F805203C4D02F0E4
:202880003F0209EB0403D3F80D802A7008F0A4FE18B1384B5B88022B60D0FFF7FFFC4FF0B4
:2028A000010908F099FE78B1324B5B88022B0BD10020FFF755FCB9F1000F05D009F04EF9B8
:2028C000012801D0FFF7ACFC2B4BB8F1404FD3F8009036D86FF4BF704FF0FF3100224B4695
:2028E000DFF8A4C0DCF800C0B0EB0C0961EBEC7A19EB08004AF1000110EB020841EB030922
:202900004FEA092143F60952002341EA18614FEA08200AF091FE194B194A1B7810604BB941
:202920003978042049B289B207F092FD2978032007F08EFD0022336819681A7231601A71DA
:202940006FE708F09DFD0F4B1B68C3F17E4303F57203C34248BF09F1FF39BBE74FF00009A8
:202960009FE700BFDC080020FAFEFFFF652A0020642A0020CC05002060060020662A002094
:2029800054060020580600200429002010B508F023FE18B1144B5B88022B1DD0FFF77EFC7F
:2029A000012811D10020FFF7DBFB044609F0D6F8012816D144B1BDE8104000230B4A4FF45A
:2029C00087310B4801F04CB80023BDE81040074A8021074801F044B80020FFF7C1FB044695
:2029E000E8E7FFF71DFCE5E7CC0500208D290000640600202DE9F0470025354F3548FFF793
:202A000001F908F0BBFF3846902229460BF0A0F89022294630480BF09BF8902229462F4819
:202A20002F4C0BF095F8902229462E480BF090F82D4E2E4B29467E22A01C4FF0070A4FF02B
:202A400002091F60C6E900750BF082F8A623FF2101224FF0190E4FF0B90C42F601086F2706
:202A600042F202002661224E84F8199084F818A066612377268B1F4BA4F8008084F80EE0CE
:202A800084F80FC0E776A1765E801971627384F837201880FFF702FC012803D02C46204607
:202AA000BDE8F0870446144809F010F82046FFF757FB2B46114A4FF48731114800F0D0FFC6
:202AC0002946104801F0B8F82046BDE8F08700BF940600207000002024070020B4070020DD
:202AE000CC05002044080020D4080020DC080020840600204C06002094DF00008D29000034
:202B0000640600201802002008B500F08BF880B208BD00BF00F014B938B50C4D04202B6851
:202B20005B6998472B6804205B6B984701280446F8D12B6840F20140DB699847044B054A93
:202B40001C6013689B07FCD538BD00BFB80100102820086028200840034B1B68002B14BF7F
:202B600001200220704700BF98090020F8B503880446002B2ED0B3F5847F05D1184B1B78B9
:202B80008B4205D00120F8BD002323800320F8BD144D2B6873B1144B144A1B6812685B688A
:202BA000022017460026984730182B6847F1000198472E600E4B40F201401B689B6A9847DD
:202BC00001210C4B0C4A196013689B07FCD50B48FFF71EF84FF4847323800120F8BD00BFEE
:202BE0007202002098090020CC01001004800240B80100102820086028200840B400002000
:202C000008B5064B04201B685B6B9847012809BF034B00201868C0F3400008BDB8010010FA
:202C20003C2008402DE9F041284B1B68D3B128480023024612F8011B49B90133042BF9D1FF
:202C400000274FF0000838464146BDE8F0810021204AC15402EBC303D3E90078384641465F
:202C6000BDE8F081FFF7CCFF00282BD01A4A1B4B12681A420ED11A4A0121134611601A6809
:202C8000002AFCD110464FF4807106F003FC0122144B1A6006F0D2FF06460F4A1368DB07F9
:202CA000FCD5114B114A1B6812685B680220154600249847271845F10008002EC3D106F017
:202CC000C1FFC0E7FFF728FFD0E700BF980900209C09002080020020088002400100008087
:202CE000F09F0240A8025042CC0100100480024038B500240D4D0E4A2C6013680D4923F0F1
:202D00000103096813604B6931209847224620464FF4807106F0BEFB0122074B2A601978A6
:202D20002246BDE83840054801F020B8A80250420C800240B001001072020020C8000020B1
:202D400010B5074C2378802B00D010BD00F06CFF002120700348BDE8104000F06DBF00BF51
:202D600072020020C80000200AB90020704708B508461146FEF7A8FB002008BD0FB400B5E6
:202D800083B004AB53F8041B04481A46019300F04BF803B05DF804EB04B07047D80000201A
:202DA00038B50446154600680AF0FAFD226800202A44226038BD00BF0EB430B586B009AB49
:202DC00053F8041B084D01901A4601AC04A803930495059400F028F80022019B1A7006B014
:202DE000BDE8304003B07047A12D0000102970B50C4605460CD90B4E01E0102C0BD92B68B9
:202E00001022314668689847103C0028F5D070BD08460029FBD022462B6868680149BDE8F8
:202E20007040184720E000002DE9F04F834688464FF000098FB0019298F80030002B00F0A2
:202E4000E380252B08BF45461DD0444603E0252B00F044812C466378651C002BF7D14545C3
:202E600000F0D280A5EB080641463246DBF80030DBF804009847002840F0B8816378B14459
:202E8000002B00F0C1806B7805F10108002B00F0BB800025A3F12002102A1BD8DFE802F0DD
:202EA000171A1A141A1A1A1A1A1A1A111A0E1A1A090045F0100518F8013FEBE745F00105E0
:202EC000F9E745F00605F6E745F00805F3E745F00205F0E7A3F13102082A00F2D580002462
:202EE00004EB840403EB440418F8013F303CA3F13002092AF4D92E2B00F0CE804FF0FF329C
:202F00006C2B00F0E180682B00F02681782B00F28180DFE813F079007F007F007F007F00CA
:202F20007F007F007F007F007F007F007F007F007F007F007F007F007F007F007F007F00A1
:202F40007F007F007F007F007F007F007F007F007F007F007F007F007F007F007F007F0081
:202F6000AC027F007F007F007F007F007F007F007F007F007F007F007F007F007F007F0032
:202F80007F007F007F007F007F007F007F007F007F007F007F007F00A9027F007F007F0015
:202FA000A602A302A0027F007F007F007F007F007F007F007F007F007F007F007F007F00AF
:202FC0007F007F007F009D027F007F007F007F007F007F007F007F009A027F009702940293
:202FE00091028E028B027F0094027F007F007F007F00880285027D007F007F0082027F0081
:203000007F027F007F00720248460FB0BDE8F08F45F4407505F4E063B3F5806F08F1010889
:2030200000F0A9805ED9B3F5C06F00F07D81B3F5E06F00F07281B3F5A06F7FF4FDAE019A31
:20304000012C136888BF04F1FF3402F104028DF8203098BF0024EB07019200F1B181214601
:203060005846FFF7C3FE002840F0C0800122DBF8003008A9DBF8040091449847002840F0A9
:20308000B580A144A144D7E62A2B00F0F3812E2B4FF000047FF432AF98F8013008F101010F
:2030A000A3F13002092A61D8002202EB820203EB420211F8013F303AA3F130000928F4D9A4
:2030C0006C2B88467FF41FAF98F801306C2B00F0388108F1010845F0600517E745453FF4F2
:2030E000D2AEBFE6B3F5807F00F08580B3F5407F7FF4A2AE0198C24B15F4804FC14F18BF80
:203100001F4603460168043301930A460023002900F06B810DF1330E7046110941EA0371A7
:203120004FEA131C02F00F0663460A46B95D00F8011D52EA0301F0D1BEEB000600F0578183
:20314000033678213022232300F8011C00F8022C00F8033CC71E23E098F80130682B00F067
:20316000978108F1010845F04005CFE62A2B00F07A828846C2E601990B460F680433019322
:20318000002F00F06D823E782EB13E4616F8013F002BFBD1F61B002A02DB964228BF164690
:2031A000B4428CBFA41B0024EA070FD421465846FFF71CFED0B93946DBF800303246DBF8AC
:2031C0000400984790B9B144A14435E63946DBF800303246DBF80400984738B92146584628
:2031E000B144FFF703FE00283FF44CAF4FF0FF300FB0BDE8F08F002AB3BF012325F0100552
:203200000292029315F40053039305F0E00300F09F80402B00F0528200F24181002B00F0AE
:203220000082202B40F03482019991F900200431D3170191002A73F10001C0F2FE81CDE970
:2032400004230023069305F4C053B3F5805F00F09A80B3F5C05F00F07581B3F5006F00F03A
:20326000968100260DF1360A029B41F208029E4241F6080303EA0503C0F03481934200F0B8
:20328000FB81002741F60802934206EB070100F0378100231A460293039B7BB1069B002B26
:2032A00040F03C8105F00603022B00F00382062B5548029B04BF012302460293029B0B4466
:2032C0009C428CBFE41A002415F00103039304D1E90640F1D38127441C46029848B1114604
:2032E000DBF800300246DBF80400984700287FF47DAF102FB14440F26D813D4602E0102D10
:2033000040F26A81DBF8003010224049DBF804009847103D0028F2D068E7019A136804324A
:203320000192C3F8009087E5DBF8003001223849DBF80400984700287FF458AF09F1010940
:203340007AE598F8023045F0800508F10208DDE5402B00F0AA8100F2B280002B00F0758112
:20336000202B40F0DF80039A019906920A780023CDE904230B460433019305F4C053B3F552
:20338000805F7FF466AFDDE90423134300F09D810DF1360307939A46DDE90423D00840EAD5
:2033A0004370DE0802F007013346024630310AF8011D52EA0301F1D1079BA3EB0A0653E7BC
:2033C000DBF80030012208A9DBF80400984700287FF40CAF2146584609F10109FFF706FD08
:2033E00000287FF403AFA14426E50DF133003023042600F8013C0138A3E645F4C85509E6A6
:2034000040E0000054E0000078E0000030E0000084E0000045F41065FCE545F48065F9E501
:2034200045F48855F6E545F4E065F3E545F48135F0E545F40075EDE545F40245EAE545F479
:203440002455E7E545F4A065E4E545F4C135E1E545F4B245DEE545F4A135DBE545F4844567
:20346000D8E545F44245D5E545F4E135D2E545F4C065CFE5019A08F1010813461468043354
:20348000002C0193B8BF45F0010598F8003032E598F8023045F0200508F1020836E5602B1E
:2034A00000F0BF80802B40F0F380019B073323F0070303F108020192D3E90023BAE6602B01
:2034C00000F0C380802B2DD1039B0693019B073323F0070303F108020192D3E90023CDE9C0
:2034E0000423B0E602999342A1EB06077FF4CAAE002F08BF01270023F11902931A46CBE62A
:20350000DDE9042313433FF4C4AE754B15F4804F744A18BF1A4602230293BDE60123724AF9
:203520000293CBE605F4C053B3F5805F00F0D180B3F5C05F40F0AF8000230022069300234A
:20354000CDE90423DDE90401684B15F4804F684E024618BF1E460B46134300F0B6800DF134
:20356000360307939A4602460B46110941EA03711F0902F00F003B460A46315C0AF8011D9F
:2035800052EA0301F1D1079BA3EB0A066CE6DDE9046732463B46134300F097800DF13603D9
:2035A0009A460793304639460A2200230AF044F83032304639460AF8012D00230A220AF047
:2035C0003BF806460F4656EA0703EBD1079BA3EB0A0649E657B13D462A46DBF80030454916
:2035E000DBF80400984700287FF400AE029D32464D445146DBF80030DBF80400A9469847E5
:2036000000287FF4F3AD039BB944002B3FF43AAD21465846FFF7EAFB00287FF4E7ADA1449B
:203620000AE401990B460A6804330193002A4FEAE27373F10001BFF602AE524263EB4303CA
:20364000CDE9042301230693FDE5019A13680432194601920022039BCDE904120693F2E5B4
:20366000254F062697E5019998F802300A680431019108F1020843E401273CE7214658461F
:203680000492FFF7B3FB049A00283FF426AEADE500220023D3E50023002100220693CDE9DF
:2036A00004121E460DF1360ADEE5039A019906920A885CE60123114A0293FFE50199B1F9B0
:2036C00000200431D3170191B4E500260DF1360ACAE50023002206930023CDE9042352E657
:2036E00068E000006CE0000070E0000040E0000054E0000030E000007CE0000074E00000D2
:2037000010B50446006830B1002100F095FA54F8040F0028F8D110BD704700BF10B5FDF765
:2037200029FD0B4B1B689A68D3E900142144091A4AB1D2E9003423441B1A9268994228BFEE
:203740001946002AF5D1034B0844186010BD00BFA4090020A00900202DE9F84303880546BF
:2037600073B3592B27D1872930D082291ED14FF000092D4FDFF8B8803C68BCB1002603E070
:20378000A368264693B11C46204600F06BFB0028F6D022468821E06800F0E8FA30B34046CE
:2037A00000F010FBA3682646002BECD1592301202B80BDE8F88300232B800320BDE8F88336
:2037C000194A0120136059232B80F2E7164F39680029EBD0CB689A4203D014E0CB6893422A
:2037E00010D189680029F9D13960DFE7E060A368BEB1B3603B68C4F808907BB1FFF78EFF32
:203800003C68BAE739608B68002BCFD0D3E90204944214BF194688600346F5E7034A136076
:20382000C4E73B60E7E700BFA4090020A0090020E000002010B50446104800F0C3FA1049B2
:20384000E3680A684BB142B194420FD0134601E09C420BD09B68002BFAD10A4BA2601B6841
:203860000C60E360BDE81040FFF758BF054B1B68E360BDE81040FFF751BF00BFE0000020C7
:20388000A40900202C0B0020014800F09BBA00BFE000002010B5044600F0D0FA2046BDE8E3
:2038A0001040FFF7C7BF00BF10B5044600F0CEFA2046BDE81040FFF7BDBF00BF10B504461B
:2038C00000F0CAFA2046BDE81040FFF7B3BF00BFC068B0FA80F04009704700BFD0E90020D8
:2038E00010447047024B1868003018BF01207047A4090020024B186808B1024B186870473A
:20390000A4090020A009002010B5114B04461A68824213D072B19368984208BF134605D090
:2039200043B19A68A24201D01346F9E7A2689A60FFF7F4FE0023C4E9023310BD82681A6081
:20394000002AF5D1034B1A600023C4E9023310BDA4090020A0090020F0B5038883B0054699
:203960005BB14A2B04D188291BD0012003B0F0BD002303202B8003B0F0BD194800F002FB35
:20398000044630B1A168201DFFF784FF2468002CF8D10122134B1A704A2301202B8003B0C5
:2039A000F0BD0F48019200F0EDFA04460028F3D0019A031D9A4205D02468231D002CEBD045
:2039C0009A42F9D1084E2146054800F02BFBD4E90523376832600BB1E06998473760DBE7CE
:2039E000A8090020672A00202C0B002010B50024054B06481C7000F0C1FA2146BDE81040D4
:203A0000034800F019B900BF672A0020A8090020F000002070B504460D48049D0078C4E9BE
:203A20000623656130B9A1600A482146BDE8704000F0AABA084D094B2E68201D2B60FFF74E
:203A400029FF2E602146BDE87040024800F09CBA672A0020A80900202C0B0020F00000207B
:203A600010B5044C82B024680094FFF7D3FF02B010BD00BF2C0B002070B5094B04461B782C
:203A80003BB1084D084B2E6804302B60FFF70CFF2E602146BDE87040044800F075BA00BFC8
:203AA000672A00202C0B0020F0000020A809002070B5094B04461B783BB1084D084B2E689D
:203AC00004302B60FFF7FAFE2E602146BDE87040044800F059BA00BF672A00202C0B0020D9
:203AE000F0000020A809002010B50A4B04461B783BB9C0E903332146BDE81040064800F081
:203B000091BA0430FFF700FF2146BDE81040024800F088BA672A0020A80900202DE9F84386
:203B2000234F3D68854208D0002D38D02B4601E0002B34D01B689842FAD180B31D4E837B55
:203B400089460446D6F80080D3B10023837365B1AC4207D0AB7BDB0704D522468721284627
:203B600000F02AF82D68002DF2D1A3683BB14C4505D034600022832104F10C0098473D6872
:203B8000A54212D04DB12B68A3420AD02BB11A68A24207D01346002BF9D1C6F80080BDE8C2
:203BA000F8832B4622681A60F7E72B683B60F4E7300B00202C0B002070B586687EB10446F0
:203BC00002200A4BA0731C6004F10C000D46B0470238012804D9832D02D00123A37370BD6B
:203BE00021462046BDE87040FFF798BF2C0B0020002238B50A490B4B0C681A707CB10125F6
:203C000001E024685CB1E37B002BFAD0E581204600228221FFF7D0FF2468002CF3D138BD10
:203C2000300B00206B2A0020024B1878421C1A70704700BF692A002070B50F4D2C688442AB
:203C400006D034B1234600E01BB11B689842FBD170BD0028FCD003460A46012000211C60F3
:203C6000064C987326689981184681212B60FFF7A3FF266070BD00BF300B00202C0B0020F8
:203C800030B48A250023064A064815700649074A074C03700B601360237030BC704700BF12
:203CA000692A00206A2A0020300B00202C0B0020682A00202DE9F041224D2B780BB1FFF72E
:203CC00097FF214E3378BBB12048214F0278013B02EB4201890001327C1802F01F02027035
:203CE000A068DBB233707F5CD4F8048040B1812F1DD0827BD2071CD428781844BDE8F081FB
:203D0000144A14682CB9F7E7A37BD90709D424689CB12B78002BF7D0FFF76AFFA37BD90760
:203D2000F5D5424639462046FFF746FFEFE70123837342463946FFF73FFF3378287818443F
:203D4000BDE8F0816B2A00206A2A0020682A0020AC090020300B0020024A034B10781B784D
:203D6000184470476A2A00206B2A002070B40C4D2C78202C11D00B4B0B4E1B78234403F0DD
:203D80001F0303EB43039B0001342C70F418C4E90120F154002070BC7047012070BC70473B
:203DA0006A2A0020682A0020AC09002038B5837B034CDB07256801D5FFF7FEFE256038BDDD
:203DC0002C0B002018B1837B013B012B00D970470123024AC3731370704700BF6B2A002079
:203DE00007F048BB38B50A4C049D22682AB1C0E9013501602060002038BD0246C0E9013584
:203E000001600846226007F037FB002038BD00BF340B002010B5084C206858B1D0E9013180
:203E2000002222609847236823B1BDE81040186807F022BB10BD00BF340B002010B5416006
:203E40000446FDF797F9206010BD00BFD0E9003213440360704700BF10B50446FDF78AF9E7
:203E6000206010BD10B50446FDF784F9D4E90032C3F10103184482422CBF0020012010BDB5
:203E8000F8B504880746672C0BD0792C04D0D4B100233B800320F8BD852936D11C4E002338
:203EA00033601C4D1A4C05E00A282646236811D07E2B25DD284600F04FF8431CF4D16723B3
:203EC0003B800120F8BDFFF7AFFE134A104B10701C60E6E70025114A0F49D5540978013377
:203EE00028462360FFF742FF0D4B2A4618688521FFF73CFF0028D2D179233B800120F8BD83
:203F000006495A1CC8542260D4E70120F8BD00BFB80B0020BC0B002011350020380B00205B
:203F20002C0B002008B505490548802200F00CF8BDE8084000210348FFF77EBEC40B0020C2
:203F4000BC0B0020000100200023013A0160027143718371704700BF10B481794279047913
:203F6000521A224207D003464A1C00682240405C9A7110BC70474FF0FF30FAE70023036022
:203F8000704700BF0068704710B404685CB1A14222D023680BB906E0134699420FD01A68B0
:203FA0001C46002AF8D100230B6002680AB910E01A461368002BFBD1116010BC70475CB12E
:203FC0000B68236000230B6000230B600268002AEFD1016010BC70470B680360F2E700BF29
:203FE00030B4056865B1A94218D02B682C460BB906E01346994207D01A681C46002AF8D1F6
:204000000D60016030BC704744B10B68236000230B6005680D60016030BC70470B68036002
:20402000F5E700BF10B404685CB18C4212D023680BB906E01346994205D01A681C46002AAC
:20404000F8D110BC70472CB10B682360002310BC0B6070470B680360F8E700BF03682BB175
:2040600000201B680130002BFBD170471846704700B10068704700BF10B504464288002120
:20408000406809F065FD23886288A06802FB03F2BDE81040002109F05BBD00BF30B44588F7
:2040A000BDB141680B7863B100234A1C03E01478114601322CB10133AB42F8D1002030BCFD
:2040C000704701220A700588806803FB050030BC70472846F3E700BF70B4448882685CB183
:2040E0008A4206460BD00023058801E0914207D00133A3422A44F9D1FF2070BC704700231C
:204100007268D05C0028F8D00138D054726870BCD05C704783688B4208D84288008800FB7E
:20412000023081422CBF002001207047002070474188034649B100205B68194413F8012B4D
:2041400002B901308B42F9D170470846704700BF2DE9F8431646002206FB0105099FA842F9
:204160003A609DF820801CD2044699464FEAD80807E04246494609F0E1FB78B13444AC42DE
:2041800007D22378A01C002BF3D13C603444AC42F7D33B68012023B1BDE8F8833C60BDE83B
:2041A000F8830220BDE8F8832DE9F041174D82B0009104460E4690461F46019503462022DA
:2041C00003211348FFF7C4FF01281BD12B68187020682B68D4F804C0A168E268C3F80200BC
:2041E0002868C3F806C0C3F80A10C3F80E20089B86744361099B80F813800777836102B0EC
:20420000BDE8F081002002B0BDE8F0815C0C00208C2B0020F8B507460C4D0D4E05F1200479
:204220003560803514F8203CA4F11E0033B114F80E2C3946D20809F081FB28B13460203460
:20424000AC42EFD10020F8BD0120F8BD8C2B00205C0C0020802210B5074C82B00346CDE9BB
:204260000024032120220548FFF772FF10B9206802B010BD0020FBE7540C0020A82A0020BC
:20428000F0B4124A124F11460024134648F2FE0602F160053A6008E09A7C82420AD02033CA
:2042A000AB4219464FF001040AD21A78002AF6D0421CF1D15A88B242F1D11CB1396001E011
:2042C0003B600023F0BC1846704700BFA82A0020540C0020802270B5104D82B00346CDE9D9
:2042E00000250446122205210D48FFF731FF012811D12B68187020682B686668A168E26818
:20430000C3F802002868C3F80660C3F80A10C3F80E2002B070BD002002B070BD580C00200F
:204320002C2B0020F0B504468020234D83B0CDE900050E4617462346202203211F48FFF73C
:2043400007FF012834D12B68187022682B68D4F804E0D4F808C0E168C3F802202A68C3F83A
:2043600006E0C3F80AC0C3F80E10D774BEB910750123FF2140F2FF2000274FF080769374BA
:20438000627B0F4B5A73E2891860C3E9017618461973DA81FFF79EFF286803B0F0BD002328
:2043A00002F118001375314607F0DEFB2A68DFE7002003B0F0BD00BF540C0020A82A00201A
:2043C000440C0020802210B5074C82B00346CDE90024052112220548FFF7BAFE10B92068B8
:2043E00002B010BD0020FBE7580C00202C2B002070B5044640F2FF224FF08070FF2100250B
:20440000094BE67B1A605E73228A9860197318465D60DA81FFF7D6FF044B186000B105703E
:204420000023237070BD00BF440C0020580C002008B1FFF7DDBF704738B5124B124C1846DE
:20444000236003F1600504E020682030A842206010D20378002BF7D0037D002BF4D1183053
:2044600007F08AFB0028EFD020680028EDD0FFF7BFFFE9E700F060FBBDE838400348FFF73F
:2044800013BA00BFA82A0020540C0020EC2B00202DE9F04F48F2FE070B88BB4253D00B781D
:2044A000FF2B50D000233D4C3D4E22469A4604F16009346003E020324A45326037D2147856
:2044C000002CF8D0947C012CF5D15488BC42F2D0002401F1FF3E02F1010C03E05FFA88F43E
:2044E000802C1AD01EF801BF1CF8015F04F10808AB45F3D004F108088BEA05055FFA88F8C7
:204500004FEA450C15F0800F04F1010E5FFA8CF503D15FFA8EF44445F2D1A24598BF13460D
:2045200002F1200298BFA2464A453260C7D34BB353F8024F59689A68DB68046041608260E5
:20454000C360BDE8F08F154A154E0024114648F2FE07134602F16005326005E02033AB4230
:2045600019464FF001040CD21A78002AF6D09A7C012AF3D15A88BA42F0D1002CD8D031602F
:20458000D6E733600023038043808380C380038143818381C381BDE8F08F00BFA82A0020B7
:2045A000540C00200B684A688360037AC26083F002030372704700BF70B5094EB068450890
:2045C000FEF7A2FA0446FEF79FFA2402B268A4B22044B0FBF2F302FB1300284470BD00BF80
:2045E000902A0020F0B52F4C83B001F03DFC00F093F8602200212C4809F0AAFA2046F422B9
:20460000002109F0A5FA4FF4A063264640271822202044F8043C2549254B264D06F8047906
:20462000B5601A7000250870FFF7C6FF48F2FE0C42F21072204CF0603946CDE900552B46D2
:20464000C4E900C5326135752A462046FFF7ACFD1A4A04F1080310685168012203C3237A1B
:20466000294683F002032046237240F2FF26FFF759FE4FF080732046E360C4E90155266050
:20468000FFF728FE4FF000732046C4E90065C4E90253FFF71FFE0C21094803B0BDE8F040B9
:2046A000FFF7F8B8942A00208C2B0020892B0020882B0020C0270900440C0020082C002044
:2046C000EC2B00202DE9F047054610480F469046FFF758FCC0B10446DFF83490DFF834A03D
:2046E0000BE0D9F800304246394628466668B0472046FFF7BDFC044630B1012DF1DC5046C3
:20470000FFF7ACFC0346EEE7BDE8F087FC0D0020000E0020000D002008B50B48FFF7ACFC8F
:204720000A48FFF72BFC0A4B0A49186805F07CFB0948FFF7A1FC0948FFF720FCBDE8084042
:204740000748FFF71BBC00BF3C010020040E00201C0100205948000010010020000D0020B3
:20476000FC0D002048B108B5044A4168106805F0FDFCBDE8084001F0C3BB70471C010020AD
:2047800070B5054620482946FFF74CFC6B6805F108065868FFF7F6FB48B3044604E0204687
:2047A000FFF766FC044610B363689D42F7D16B6821465868FFF736FC6B685868FFF7E2FB9A
:2047C000D0B129461148FFF787FC21461048FFF783FC104A28461368013B1360FFF7C2FF3A
:2047E0003146BDE8704002460320FFF76BBF304602F0D2FD0024DAE76A68074B51681868E9
:2048000005F050FCDDE700BF040E00203C01002030010020000E00201C010020C8B1436865
:20482000BBB110B504461846FFF7ACFB50B1406818B143680BB1FFF7A3FF6068FFF7A2FB36
:204840000028F4D1034B2146BDE81040186805F029BC70471C010020FFF7E0BF0148FFF79F
:2048600091BB00BF040E002008B1FFF701BC704708B501F04DFB38B1044B0146186805F0EE
:20488000F5FB003018BF012008BD00BF1C0100202DE9F04107461B48FFF774FB044670B376
:2048A0000026B04694F8245004F10801B5424FEAD50207D3384609F041F818B9802D0DD0F2
:2048C0002E46A0462046FFF7D3FB04460028E9D1B8F1000F03D14046BDE8F081A0460948C9
:2048E000FFF750FB8045F6D041460648FFF79AFB41460448FFF774FB4046BDE8F0818046F2
:20490000E9E700BF040E00202DE9F84F054610461746894601F0FCFA00286BD0804628462E
:20492000FFF7B6FF044670B1FFF71CFF30B101461022384609F002F8002849D0636813B1B5
:204940002046FFF71DFFDFF8CCA0DAF80030142B50D0DFF8C4B04146DBF8000005F086FB20
:204960000646002837D02848FFF798FB0446002840D001462548FFF733FB2548FFF78EFB7D
:204980000346D8B3446001467068FFF7FDFADAF80030314601336660DBF80000CAF800305B
:2049A00005F0AEFB4FF0000C28686968AA68EB6804F108060FC684F824903A462946C4F895
:2049C00018C00220C4F81CC0C4F820C0FFF77AFE2046BDE8F88F034641460422DBF80000E0
:2049E00005F09CFA064628B10023C0E90030FFF7C5FAB8E700242046BDE8F88F2146024850
:204A00001C46FFF769FBE3E73C010020040E002030010020000E00201C01002018B1436851
:204A20000BB1FFF7ADBE704710B504460E48FFF7A9FA40B1A04202D106E0844204D0FFF788
:204A400017FB0028F9D110BD21460748FFF7EAFA21460648FFF740FB221D1146BDE8104084
:204A60000120FFF72FBE00BF000D00201001002038B505460B48FFF785FA78B1044604E0BE
:204A80002046FFF7F5FA044640B110222946201D08F054FF0028F3D1204638BD0024204696
:204AA00038BD00BF000D0020F8B50F460546FFF7DFFFC0B1064628686968AA68EB68341D20
:204AC0000FC447B9012333772A4629460020FFF7F9FD3046F8BD394606F1140007F044F862
:204AE00000233377F0E70548FFF7D8FA06460028EFD001460248FFF773FADCE710010020E2
:204B0000000D002038B50B48FFF73CFA044670B1251D284601F0DAF908B1437C2BB920465B
:204B2000FFF7A6FA04460028F2D1284638BD0546FBE700BF000D002038B50F48FFF722FAD8
:204B400070B104460C4D237F04F1140013B907F013F830B92046FFF78BFA0446002CF2D115
:204B600038BD2046FFF760FF2846FFF70BFA0446002CE8D1F4E700BF000D0020F0B4561E0E
:204B80000E44B14219D2023A22F001070B1D1F448C1C14F8025C14F8013C023403EB05235D
:204BA0009BB2184480B2834284BF013080B2BC42EFD122F00102023211448E4207D1337800
:204BC0001B02184480B2834284BF013080B2F0BC704700BF30B5124B124D1C782A796B79E1
:204BE000C4EB0222134483B09BB2ADF80630BDF8063005F108011844202280B2FFF7BEFFC3
:204C000004F12801BDF806202944FFF7B7FF18B140BA80B203B030BD4FF6FF7003B030BD99
:204C20006D2A0020102C002002204FF0000CF8B52D4D2E4F2A782E4C2832BB185E782070A1
:204C4000F6000736864242DB1318F95C3B44012912D018D3632907D1BCF1000F3ED104F023
:204C600057F998B90120F8BD01F0C001802918D0C02925D040291ED05B7802301844C0B272
:204C80004FF0010CDEE70130C0B2F9E722782B78184913440B445B7802321A442270002025
:204CA000F8BDBCF1000F17D102440221042007F04BF80220F8BDBCF1000FD3D02070D1E756
:204CC000BCF1000F0ED13B7EFF2BCBD0ECE7BCF1000F05D10020F8BD2070E5E72070BEE7F0
:204CE0002070F7E72070EEE76D2A0020102C00206E2A0020382C002070B4C478134A0C4485
:204D0000E4B2D47083780E0A3344DBB2937045789E4255700078107003D90135EDB25570CF
:204D200085B1C9B28C420BDA0133DBB293703BB953780133DBB2537013B9137801331370FA
:204D400070BC704701301070EBE700BF042C002010B5084C014620681430FFF7CDFF064AA0
:204D60002368507814789178D2781C7558759975DA7510BD08300020042C00203A20FFF781
:204D800029BF00BF08B5FFF72DFC07F0D9F801F023FA00210E4B03F1280223F8021F934211
:204DA000FBD100210B4B03F5F07283F8251030339342FAD14FF480600021074A074B10802C
:204DC00003F5A072198220339A42FBD108BD00BFF23100200C300020522A00202032002002
:204DE000F8B5114D2C7844B1104F04F127033E88B34203DB00233B802B70F8BD0C4BA6F1DC
:204E000028021919121B184608F040FE03460021341BA4B2A4F1280210123C8003F8232C7F
:204E200003F8240C2970F8BD6D2A0020FC2B0020382C0020F0B50746DFF888E01E4CBEF826
:204E400000600136B6B2B6F5FA4F2BD2350A45EA0625ADB2194A94461346188A2033A842F5
:204E6000EFD09C42F9D10023AEF80060108A203228B101330A2BF9D100263046F0BD5C0104
:204E80000CEB04063582718287B1354638687968BA68FB680FC50A4A0CEB04031279304687
:204EA0001A75F0BD10254FF48056D3E74CF80470C6E90177F760EEE760330020203200207E
:204EC000902A0020522A002010B4084C0023224602E00133142B06D032F8021B8142F8D1BB
:204EE000002224F8132010BC704700BFF43100202DE9F04F042885B07ED0AA4ADFF8D0B269
:204F0000DFF8C892DFF8CCA20328DBF80050C9F80020CAF8002013D0022800F0B5800528AB
:204F20007DD012F83C3CA2F13C0403F0F003602B00F056819C4F9D4E9D4BDFF89C8265E09F
:204F400095F8250000F00F0003287FD00228964F964E58D1A2F13C04402360223380954BBF
:204F600084F8350084F83420E3632B7DDFF86CC284F830306B7D84F83130AB7D84F8323016
:204F8000EB7D84F833302B7E84F82C306B7E84F82D30AB7E84F82E30EB7E84F82F302B8A8B
:204FA00023856B8A638595E80F008CE80F006146ACF11000FFF76CFA95F82530D9064CBFE1
:204FC00000234FF48043E3860622002133887A48283B057963711B1223711046E571A27144
:204FE000A163FFF7F7FDC04320876023236000233B7005B0BDE8F08F6B4F6C4E6F4C238892
:20500000002B40F09B806A4BDFF8CC81002232801A7088F800203A7005B0BDE8F08F684B0D
:205020001B681B8A002B85D000230821634C5F4E5D4F0C3AC9F80020CAF80020CBF8003078
:2050400023803380397002F0F3FBD8E7AB8B002B7FF470AF0823544F544E3B70574C02F00F
:20506000E7FB3B7813F0200200F0AE82002314222380544C85F8253084F835203C23338005
:20508000502384F8343070E700274F49474ECA78474B0132494CD2B2CA7037801F702780CB
:2050A00062B98A780132D2B28A703AB94A780132D2B24A7012B90A7801320A7095F8252030
:2050C00002F0FD0105292CD0A2B3A98B002900F0E68095F826104F1E85F8267051BB95F8D2
:2050E0002710082900F0E982571E012F40F2E28204298C464FF0030728BF4FF0040C02F042
:205100000F02013107FA0CF7013A85F8271085F82670072A0ED8DFE802F0A3A7AA9D0D9D3B
:205120000D9D95F826200132D2B2782A85F8262000F089801C4FDFF8A08067E700201125D7
:205140001F4A204C126803F1080149BA92F814C0A185E085118A303321859BB2508AA3F1B8
:20516000280184F807C04FEA212C338084F804C060856171A57104F118060FCA86E80F0014
:20518000314604F10800FFF783F9104B04F13C0228461A60FFF71EFDC04380B2002849D02C
:2051A000E08522E74C2C0020F82F0020FC2B00206D2A002002040040902A00201C32002016
:2051C00000300020102C00203C1100200430002008300020002C00206C2A0020282C002094
:2051E0002379844E61791B0230885D18854225DC207A28310B44FF2833801FD000217E4D5E
:20520000363A7E4BDFF810822A60A279197088F80010002A58D10122009388F80020FFF78F
:2052200003FD0128009B00F0448143D302284BD1734FDCE64FF6FF73E385D6E6704F6F4BC1
:20524000DFF8D481E2E600226D4F85F82520DFF8C881DBE66A4F6B4C112384F835300DE760
:20526000674F684C122077E6654F664C74E60423634F3B7002F0DCFA2388DAF80020C9F8CB
:205280000020002B00F0B881AB8B002B00F0B48118225C4C3C33338084F83520F0E602F077
:2052A0000F02032A7FF446AF0823554F3B7002F0BFFAD6E61A7802F128012144487808325A
:2052C00002EBC00229601A704F480093FEF7C2FF009B002800F0A8811F462A6811783C296B
:2052E00000F26B81DFE811F0550169016901690169016901E70069016901690169016901A7
:20530000690169016901690169016B006901690169016901690169016901690169016901EC
:205320006901690169016901690169016901690169016901690169016901690169015100E6
:205340004E006901690169016901690169016901690169016901690169016901DB004E0074
:205360003D0098F80030980740F1C481590600F1248143F0400388F80030FFF755FC012890
:2053800040F014813B461E4F40E698F8003013F0040C40F01281387843F0040300F1280299
:2053A0002244D17888F80030002940F06284517800F1080303EBC1032A603B708EE7009797
:2053C000FFF70EFD1120E28DA071009B002A40F0AF81658D002D6CD00C490D4F208D0D4AE6
:2053E0000B460090116001F5A07407F1040C07F1080818E0FC2B0020FC2F00206D2A002000
:20540000F82F0020102C0020282C002020320020182C0020003000206C2A00202033A34261
:20542000136080F06C81198A0029F7D08D42F5D1598A11B100988142F0D1196829B959688F
:2054400019B9996809B9D968B1B1386819688842E4D1DCF80000596803F1040E8842DDD161
:20546000D8F800105EF8040F8142D7D1A748DEF8041000688842D1D1002202213388A44CDB
:20548000303B3380A34FA44BCBF8002022803970C9F80030CAF8003002F0CAF9AFE53A2059
:2054A0000097FFF797FB4FF6FF729042009B00F04981984FAAE50097FFF792FC06221046E1
:2054C000A271FFF787FB4FF6FF729042009BF0D1628D0192002AECD0228D0292002AE8D0D0
:2054E0008E4FCDF80C803D46984604E08C4B30359D4200F26D8195F825300093002BF5D0D9
:205500002A8A019B9A42F1D16A8A029B9A42EDD110222946834808F011FA0028E6D10246DC
:20552000019094F835007B4F41074346CBF80050DDF80C803A7000F10784318894F834C0AB
:20554000009A4FEA1C1C2839A1EB8C0102F00F0C89B2BCF1020F318000F00084BCF1010FDE
:2055600000F0D18111B9820700F0D3816969E26A8A4200F0CE81830707D5BCF1010F3FF4D3
:2055800071AEBCF1020F00F06983102384F8353074E598F80030D9070FD443F0010388F8AB
:2055A0000030FFF741FB01283FF4ECAEC0F0978002283FF43DAE2A6890E6121B0121042009
:2055C00006F0C2FB534F12E513F010010CD00120042111232280544C85F82720A88385F867
:2055E000251084F8353049E5228882B9DAF8003085F82720C9F800303B789B077FF503AD52
:205600003C221023484C328084F8353038E5D80760D5A983EB8B9A4288BF23802388AB8360
:20562000002285F8272028E640480093FEF7CAFE009B00287FF450AE207E2189FF2800F00B
:20564000998048F2FE05228BAA4200F0BD80A94200F0198179B9618969B9A18959B9E189D5
:2056600049B9218A39B9618A29B9A18A19B9E18A00293FF41EAF82B9628B72B9A28B62B992
:20568000E28B52B9228C42B9628C32B9A28C22B9E28CB2F5807F3FF40CAF3388B3F5A06F93
:2056A00000F2F780E379012B40F22581013BE371184F9CE405297FF41BAD00228023154F18
:2056C00085F825203B7002F0B3F81423164C84F83530D3E4AB8B002B9CD02380A0E73B78E5
:2056E00003F1280222445178083303EBC1032A603B70F3E543F0020388F800303DE6002236
:205700000421012006F020FB92E500BF242C00201C320020F82F0020402C00200C300020EF
:20572000BC310020182C0020102C0020282C00200093FFF74FFA4FF6FF729042009B7FF4C0
:20574000B8AE46E61A78B5490093885C01F004FF009B1A782832A1184978A05C06F0D0FAFF
:205760000128009B3FF4A5AE3288AD4F002A7FF43EAC4BE448F2FE0291427FF49AAE228BFE
:20578000002A7FF496AE628B002A7FF492AEA28B62B9E28B52B9228C42B9628C32B9A28CEE
:2057A00022B9E28CB2F5807F3FF483AEFF283FF480AE9C480093FEF72DFD0246002800F018
:2057C0005182974F009B21E491427FF472AEF0E794F83520434602F03F02022ADDF80C8009
:2057E00060D08F4F94F8352050073FF50FAC4FF03C0C41F2504094F8333094F8325094F8A1
:205800002F1094F82E20013184F82F30A6F800C094F82D3094F831C0A08684F82E5094F8F2
:205820002C0094F83050C9B284F8331084F8322084F8313084F82DC084F8300084F82C503E
:2058400061B90132D2B284F832203AB90133DBB284F8313013B9013084F83000714DB4F805
:205860002880B4F82AE0A5F1100C9CE80F00A4F82A80A4F828E085E80F0060462946FEF715
:2058800007FEFFF7A1BB002A93D1628B002A8DD17DE74FF4A0620021022006F055FA604FCE
:2058A000FFF7A5BB0022604901E0142A99D031F81200019D0132A842F7D100254FF0300EDF
:2058C0002A4602E00A2A00F029820EFB02F0391891F825C00132BCF1000F00F0D381BCF10D
:2058E000070FEFD12DB191F826C095F826108C45E8D93D18E6E700220320114606F024FA5E
:20590000474FFFF774BB00F03F0EBEF1020F7FF429AEC00601D5A98BC1B90CF1FF3CBCF156
:20592000070F3FF673AB01A252F82CF06B5D0000D3590000735B0000435B0000155B000025
:20594000FD5A00008B550000A159000005F118000093FFF7D1F9354994F8300091F800C032
:20596000009B844566D095F8252002F00F010139009207293FF64AAB01A252F821F000BFD6
:20598000EB590000BF590000735B0000435B0000155B0000FD5A00008B550000A15900009E
:2059A0003A78D4077FF532AB0021102285F8251000933A7001F03CFF009BFFF727BB397877
:2059C000CA0706D594F8351001F03F01122900F0D581202200933A7001F02AFF0021DBF80B
:2059E0000020009B82F82510FCE63A78D10740F1BC81032140220023308885F825103A70A6
:205A0000AB8318B142233B70FFF7A2F90023084C238001F00DFFFFF724BB00BF382C0020BF
:205A2000F82F0020282C0020F4310020042C00201C32002094F831E04878704593D18A7830
:205A400094F832E0009272458DD1C97894F833E0714588D195F827E0687685F818C0AA762B
:205A6000E97695F82400BEF1000F21D195F8261095F822C0411AA1EBDC01C9B20CEB0100FD
:205A80004FFA81FCBCF1000FBCBF49424FFA81FC95F82310C0B2A1EB91016144C9B285F8CB
:205AA000220001EBD00085F8240085F82310C0B24FF0010E4FF0000C95F8252085F8260037
:205AC00002F00F010139009287F800E0A5F81CC007293FF69BAA01A252F821F0F35900002C
:205AE000BF590000735B0000435B0000155B0000FD5A00008B550000A15900003A78D007F8
:205B00007FF584AA0721002285F8251085F82620FFF77CBA3088002840F0848094F8352003
:205B2000D2077FF573AA0722002385F8252085F826300120FFF70CF910233B7001F078FEB9
:205B400023E5308818B10093FFF702F9009B94F83520397812F0010201F0010176D00029A4
:205B600070D00023072285F8263085F82520AB83DFE794F83520D00720D50099C9061DD40A
:205B8000AA8B002A7FF442AA3088013080B2FFF7DFF83B78328843F01001397012B143F00F
:205BA00012033B7001F044FE012108220023A98385F8252085F82730FFF74EBB9006318873
:205BC00010D5628F94F83AE094F83BC0D9F8000052BA92B24CEA0E2C1044A1EB0C02C9F882
:205BE0000000328030883A7848B10099C90606D442F0020200933A70FFF7AAF8009B94F81C
:205C0000360094F83720298C02EB002292B2914202D3002A18BF11463A78E98394073FF477
:205C2000F5A9F3E60093FFF793F894F83520009B12F0010F7FF477AF3288002A7FF4A5AC0A
:205C4000FFF7E4B9062385F8253072E70029F3D00521AA8385F82510FFF7D8B940F00200B3
:205C6000FFF77AB90221012006F06EF86B4FFFF7BEB900F12A026146042006F065F8674F43
:205C8000FFF7B5B90D464FF4806040F2031103224FF0010C019F624B2F82029F68846F82F7
:205CA000604FA984EA840FCB85E80F007978BA78FB7897F800E0697694F82C7094F82D106F
:205CC000AA76EB7694F82E2094F82F306046AA75A5F81CC085F818E06975CBF800502F7536
:205CE000EB75FFF735F894F8343003F0F002502A11D900221B09053B9B00A11891F83C70D9
:205D00004FB1012F1ED0022F91F83D000AD010B102449342F1DC414FFFF7A4BA002DB2D157
:205D2000FFF7C7BB0428F2D191F83E2091F83F303A4F43EA0223402B28BF4023EB832B8470
:205D4000FFF790BA0132E4E7202185F825200093397001F06DFD009BFFF758B900F03F0E8C
:205D6000BEF1120F7FF4FEABD3E594F8352002F03F02022A7FF44AA9FFF774BA94F83410E5
:205D800001F0F000502817D909090539019A8900A01890F83CE0BEF1000F0DD0BEF1010F90
:205DA00039D0BEF1020F90F83DC025D0BCF1000F02D062449142EBDC032194F82C2094F84A
:205DC0002D0085F825102A7594F82E1094F82F206875A975EA7501200093FEF7B9FF0022C3
:205DE0004221114C009BAA8332801A702280397001F01EFDFFF735B9BCF1040FD6D190F8B5
:205E00003E1090F83F2042EA0122402A28BF4022EA832A84D0E70132CCE700BFF82F00208D
:205E2000182C00203C1100201C320020054A030C02EA00225BBAC0F307209BB2104343EAFB
:205E40000040704700FFFF0050B110B5044603F0FBF9044B2146BDE81040186804F022B95C
:205E6000704700BF4801002008B504F00BFC034B03491868BDE8084003F0D6BF4801002093
:205E8000495E0000F8B50C4A05461E461068079B9DF8182004F042F8044650B12F686968E1
:205EA000AA68EB68076041608260C360467403F0CBF92046F8BD00BF48010020024B014628
:205EC000186804F053B900BF4801002070B505460A4E306803F0F6FF55B90CE01022294637
:205EE000204607F02BFD38B12146306803F0B2FF04460028F2D10024204670BD480100203C
:205F0000024B0146186804F0B1B800BF4801002008B5FFF7DBFF30B1034B01461868BDE8C0
:205F2000084004F023B908BD4801002070B5054610200E4604F0A6FA0849044604F0D4FA36
:205F400000B170BD32462946204604F007FB324629462046BDE8704003F052B934E100006B
:205F60002DE9F04F8F4C85B0E3798F4DFF2B06D08E4E002333802B7005B0BDE8F08F2B78BB
:205F800003F12C0020440279FF2AF1D0884A1A445278002AECD14FF0140C844E854F318879
:205FA000DFF8248240338B4287F800C0C8F8002069DA23445A78002ADBD0DFF8109204F146
:205FC000080A1A78012A2BD12289C8F8003042B9628932B9A28922B9E28912B9228A002A78
:205FE00046D053F8020F02AA596803C25046FFF76DFF0246C9F8000028B3FFF75FFF834604
:206000000028B6D0D8F8000008220230594607F095FC08BBD9F800305A7C0AB902225A7430
:2060200028783A782C30831823445B78318802EBC302D2B213188B423A7023DA23445A7816
:20604000002ABED195E7052302A9CDE9003002235046FFF717FFE3E75846012202A904F061
:206060009DF8002885D00222D9F800305A74D7E7628A002AB5D1A28A002AB2D1E28A002A52
:20608000AFD176E720440430FEF7E4F84A4F386000283FF46EAF23897BB963896BB9A389F5
:2060A0005BB9E3894BB9238A3BB9638A2BB9A38A1BB9E38A002B3FF45CAFDFF81481404621
:2060C000FEF7C8F800287FF454AF40F2FF23228B9A420BD1638B4BB9A38B3BB9E38B2BB94E
:2060E000238C1BB9638CB3F5807F48D0DFF8E4904846FEF7AFF83B68844698427FF439AF58
:2061000098E80F0089E80F002B784B4418330FCB88E80F0060208821E0224FF0000E40F2F0
:206120000228264B218584F82C20636020605CF8020F234FDCF80410DCF80820DCF80C3048
:2061400085F800E00FC71F4BA7F80EE019685B68C4F84210C7F80630A4F82AE0A4F84080CC
:20616000C4F84AE0FEF70AFE5022C0432B783280A7F1180202EB030BABF80200FCE694F8B2
:206180002430FF2BB2D198E80F0008F1100C8CE80F002B78D7F800C0434428330FCB88E879
:2061A0000F00B7E7102C00206D2A0020FC2B0020382C00206F2A0020A812002000283AFF60
:2061C000402C0020082C0020B0120020AC120020182C0020282C0020014805F0AFBD00BFDE
:2061E0005C01002008B5034801F088F9024B034A1A6008BD616C0000B41200200100FD001E
:2062000070B413780C7A83F002039C4220D0214D0B892C681BB94B89B3F57F4F0CD0012250
:2062200001F10803824004F1080603CB2E6020606160D0B270BC70478B89FE2BEFD1022378
:20624000CA8903FA00F024F8022B2C60C0B2F1E74C7A53789C42DAD18C7A93789C42D6D12F
:20626000CC7AD3789C42D2D10C7B13799C42CED14C7B53799C42CAD18C7B93799C42C6D1E8
:20628000D379CA7B9A42C2D1032303FA00F0C0B2D0E700BF8419002010B5124C0220A179E7
:2062A00004F0D6F8A379112B09D0062B07D03A2B0FD0BDE810400021012004F0C9B8238D43
:2062C000618D0120BDE81040994228BF194604F0BFB8218D0120BDE8104049BA89B204F038
:2062E000B7B800BF102C00200E4B1A78012A01D00020704710B459880288914202D0002062
:2063000010BC70474288998802309142F7D1D98830F8022F9142F2D1428819899142EED1F4
:206320001846EDE7B412002008B50146102004F09DF8044B00219B6803489847BDE80840FE
:20634000FBF76EB898E100004D63000010B50C4611462046FFF7EAFD044B1B6813B19B68B2
:2063600020469847024B1C6010BD00BFC01200208C1900202DE9F843184D00222B469C786F
:20638000713334B101320C2AF9D14FF0FF30BDE8F883C2EBC20402EB041405EB040888F8BF
:2063A0000110074603F0AEFFDFF838900C4B99F800101E68401A88F802002F550E4403F01D
:2063C000A1FF99F800200334821A3146281907F0E7FA98F80200BDE8F88300BFC81200209E
:2063E00094190020702A00202DE9F04780461646002A3DD1664D89462E46738A17464FF0E0
:20640000020A4FF0FF342BBB631C2ED0BAF1010F06F1B80619D1621C14D0B82606FB04F606
:20642000AF190F20A7F81290A7F8108004F02AF80146384604F052F806F118002844402100
:20644000FDF7FCFC2046BDE8F087738A4FF0010A002BD9D006F11800FDF704FD002843D173
:20646000611CD3D1738A002BD0D1CAF10204CDE7474D2B8A834208D0B5F8C830434524D0B6
:206480004FF0FF342046BDE8F0876B8A002BF3D00F2003F0F7FF0146284604F025F800281F
:2064A000EAD00024E7B238463146FFF763FF00282BDB0028E4DDB82303FB0455AB8A64B284
:2064C0001844A8822046BDE8F087B5F8CA30002BD6D00F2003F0D6FF01462E4804F004F898
:2064E00001240028CCD0DDE72B4BCAF10200778203F24C51C0B29A781AB11A78824208BFC5
:206500009F7071338B42F6D17EE76B8AE3B1002C39D02248FDF7A6FC0028B1D000221046F0
:206520001D4B6A8203F24C519A781AB11A780AB99A70013071338B42F6D10028A0D03146C1
:206540003846FFF717FFB4E7B5F8CA30002B97D0002C95D11248FDF785FC002890D00022D2
:20656000104694460C4BA5F8CA2003F24C519A782AB11A78012A04BF83F802C001307133FC
:206580008B42F4D1D9E7B5F8CA30002BE2D177E714180020CC180020C81200202C18002018
:2065A000E41800202DE9F84315090F2D0646994602F00F0422D00F2C0DD022462F46C5BB7D
:2065C000A046C2F11002F019002107F0C1FA9CBB15BBBDE8F88335BB1024DFF88490D9F80D
:2065E000007038687968BA68FB6830607160B260F3603C44C9F80040BDE8F8830F2C11D0A2
:206600001027A0463A463D46304607F0C9F907EB08020F2ADBDCD4E749463046BDE8F8439F
:20662000FDF7C0BF10254FF010082A4644462F46EAE72A46A046E7E7DFF82490C8F11000A3
:20664000D9F8007030443946224607F0A9F9022CCFD10A2DCDD8FF22FE23F2723373C8E760
:20666000841900202DE9F04F002589B00F20DFF83493C04C03F006FF03F0D6FF89F8005040
:20668000257003F02BFEBC4E3060042003F0E8FE3368BA491A8800B252BA92B208601112E5
:2066A00001F0F801C02964D0E0290FD02278A846995C009501F0E0006028AB46B04F76D04A
:2066C000412900F0168109B0BDE8F08F588893F804A02378C2F30A0B40BA053380B252467C
:2066E00059462370FFF780FEB0F1FF3F8046EAD0B823A44A2F4603FB00239B8A01225B454E
:2067000034BF002301230092019303F0FBFD23788342D8D803F0F6FD237899F80090C41A9E
:2067200009EBCA0A984AA244BAF57A7F1460CAD837B1316807EB09001944224607F030F9AA
:20674000BBF1000F40F03281009B002B00F04081019B002BB7D08D4BA3F800B08C4C236850
:2067600023B1FFF799FD23685B68984700F008FFA9E758882378C2F30A0B40BA043380B25D
:206780002A4659462370FFF72FFEB0F1FF3F804699D0B8277B4A336807FB00270122009209
:2067A00022782237995C01F0E000602888D19818457802321344DFF8F0A16AB2002ACAF8D7
:2067C0000030BCBF0133CAF80030C806019201F0080200F1B780DAF80030002A00F00181C6
:2067E00060223A7093F800C0D81C4FEA9C0202F030020CF00F0C42EA0C027A70B3F801301C
:20680000CAF800007B8011F00403029306D1DAF8003013F8012BBA71CAF8003011F00301EC
:2068200000F0FD805B4B5B5CFB716A06C5F3011340F11281019A002AC0F22F810022002BAE
:2068400040F0E581194607F108020392524A0F20D25C0591049203F015FEDDE9042103464D
:206860000398FFF79FFE05F0030205F0040315F0080500F0DC80B3B94849531E0988012B6B
:20688000ADF81C1007D8DAF8003013F8011B8DF81D10CAF80030424900238A5C07F11800D7
:2068A00007A9FFF77FFE99F80020DAF8003002F1280189F80010029929B1197801F0F80165
:2068C000F02900F00D8132689B1A2370BBF1000F00F0D780ABF128031A127B713A71BB797F
:2068E000112B4FF0000300F0C5800193009D9A460BE73946501CC0B2034403F12000D3F85F
:2069000000A0D3F804E0D3F808C0DD6810338342C1F800A0C1F804E0C1F808C0CD6001F1B2
