:020000040000FA
:2000000000500020E9000000E1000000C9000000E5000000E5000000E5000000000000002E
:20002000000000000000000000000000E5000000E500000000000000E5000000E50000002C
:20004000991C0000E5000000E5BC0000E50000002913000095170000E5000000E5000000CE
:20006000E50000000DBD0000E5000000E5000000E5000000E5000000E5000000E500000073
:20008000E5000000E5000000E5000000E5000000E5000000E5000000E5000000E500000038
:2000A000E5000000E5000000E5000000E5000000E5000000E5000000E5000000E500000018
:2000C000E5000000B92C0000044B1A68B2F5806F03D01B689B0500D4FEE7704728ED00E094
:2000E000FEE700BFFEE700BF08B509F07BFB0F4B0F4A93420CD2D843104420F00300043070
:200100000C4A184452F8041B43F8041B8342F9D109480A494FF000028842B8BF40F8042B4E
:20012000FADB00F0E5FAFFF7CFFF08BD00000020740200207CE4000078020020003500208D
:200140002DE9F04188461546BDF81840079FBDF82060074802F0F6FD404607F0A3F906975D
:2001600033462A462146BDE8F041024802F0EABD6CDF000080DF000070B5048886B0064699
:2001800034B18A2C55D000230320338006B070BD00F018FAFD232D4D2D4928462B806C80AC
:2001A000AC80EC802C816C81AC81EC8104F0C2F921462846012204F073F8264802F0C2FD4E
:2001C000254C04F1600514F8023C13B1237C012B34D92034AC42F6D11C4803F0F9FFD8B18D
:2001E0001A491E2008F000F8FD2408F0F1F80023402202A9ADF80840ADF80A30ADF80C308F
:20020000ADF80E30ADF81030ADF81230ADF81430ADF8163007F0A6FD0C49BE2000F0DAF9CB
:2002200040F2D2430D4A194600920D48002207F0F9FB8A230120338006B070BD204607F00C
:2002400031F90A2001F004F9C3E700BFA0020020F42B002058DF0000962A00204101000099
:20026000B002002070B5224803F048FE044628B918E0204603F0B8FE044698B1251D28466F
:2002800003F0AAFD0028F4D0637F2846013363774FF4164103F08CFD204603F0A5FE04461E
:2002A0000028EBD1134803F029FE0446F8B1114D114E04E0204603F097FE0446B0B1201D7B
:2002C00003F08AFD0028F5D02146284603F066FE2146304603F0BCFE284603F00FFE044649
:2002E000204603F081FE04460028E8D170BD70BDDC020020D40200201000002008B5084870
:2003000003F0F8FD074803F0F5FD074803F070FE0021064803F04CFC0122054B1A7008BDA5
:20032000D4020020DC020020100000201C0000204C2A00202DE9F04F048899B00546BCB1E5
:2003400040F26D139C420DD1882937D0934B1B788B4200F09F8040F26D1301202B8019B0E3
:20036000BDE8F08F002303202B8019B0BDE8F08F21464BF2F00007F033F94BF2F006034648
:20038000874F22460682314620463B6007F01CF94FF470510682834803F036FA02F09CFB10
:2003A000034681498148A1FB0321490BC1EB0111A3EB812189B203F027FACCE7794B9A42BD
:2003C00000F0C380794B9A42C0D10027744B78488DF80D70D3F8009003F090FD8246002846
:2003E00000F0CE800DF10C08BB4644460226534653F80CEF013758689968DA68C4F806001E
:20040000C4F802E0C4F80A10C4F80E209AF81C3084F814B0A37484F813B09AF81D30504695
:20042000637503F0E1FD042F06F11406824600F09F8014340028DAD1FFF714FF5D4803F03C
:200440005DFDF8B108EB06044FF0000A01E01434C0B1034653F80CEF143659689A68DB68DA
:20046000C4F800E06160A260E360037F84F812A0237484F811A0437F0137E37403F0B4FD71
:200480003E2EE4DD8DF80C7032464146484607F067F860E7484BD3F8008098F800A0BAF14B
:2004A000000F3FF458AF0027DFF80891DFF810B198F8124098F81560FFF7D4FE484603F094
:2004C0001DFD034628B90FE0184603F08DFD034650B11A7FA242F7D15A7F921B12061ED4EF
:2004E0000137BA45E4D136E7584603F093FD064638B3012243460477427753F8020F06F168
:200500000C0459689A68DB680FC4301D4FF4963103F04EFC3146484603F0F2FCE0E75E77DC
:20052000181D4FF49631019303F042FC019B4846194603F033FD019B4846194603F00CFD86
:20054000CEE71E4800F08CFFCAE7104603F066F902F0C2FA0246144B1448A3FB02135B0BE2
:20056000C3EB0313A2EB832399B203F04DF9F2E6FFF778FE0F4803F0C1FC8DF80C7083E74A
:20058000FFF770FE0B4803F0B9FC00283FF4E3AE574602260DF10C0854E700BFFE340020ED
:2005A000D8020020E00200208988888800050020DC020020D4020020F02F0020D4DF000013
:2005C00010000020024B1B7803B17047FFF796BE4C2A002070B5254B04461B780E46002BCF
:2005E0003BD0234803F08AFC50B1037FA34203D13BE0037FA3422FD003F0F6FC0028F8D179
:200600001C4803F007FD054650B3012304774377B268F3683068716805F10C040FC4281DD4
:200620004FF4164103F0C4FB2946114803F094FC114C124B2568236002F04EFA034610497D
:200640001048A1FB0321890A01EB8101A3EB012189B203F0D9F8256070BDFFF74FFEC0E736
:200660000948BDE8704000F0FBBE70BD4C2A0020DC02002010000020180B00201C000020BB
:20068000CDCCCCCC00050020D4DF0000F0B5002706463C463D4683B0304600F0FBF9019511
:2006A000019B9C4206DD00BF019B01330193019B9C42F8DC304600F0F7F90195019BC4F52B
:2006C000C8749C4206DD00BF019B01330193019BA342F8DB0137B7F5487F06D0B7F5C87F32
:2006E000CCBFC7F548743C46D6E703B0F0BD00BF2DE9F041744C86B02368012173485B6831
:2007000098470122236811461B687048984709F0AFFB01F0D9FA01F071FA00F0DFF901F05F
:20072000A9FA00F0ADF9012369496A486A4A03600B6018461368FFF7A9FF09F09DFB00F07E
:2007400067FD00F0D5FC03F007FB00F031FE03F053FA41F2342002F0C5F900F0E7FF03F020
:200760009DFB5E4800F07CFE4BF2AC7200215C4802F0E8FA5B4800F073FE09F035FA5A4C0B
:200780005A4D10F0040F14BF27462F4609F034FA01280CBF26462E4609F026FA10F0020FC5
:2007A00014BFA046A84609F01FFA10F0080F08BF2C4632464346009439464D4802F0C2FAD9
:2007C00000214C4803F0F4F903F0C4F802F062FF0220FFF75BFF484802F0B4FA474B484CBA
:2007E000186800F03DFE474802F0ACFA464B186800F036FE454802F0A5FA2168444802F0CD
:20080000A1FAE469A04720B1A0470146414802F099FA00260A2000F01BFE09F05DFF04A8A2
:2008200008213D4D3D4F039600F052FE9DF816209DF8174004AB03CB44EA0224D7F82C809D
:200840002860696002204AF6CD31C04721460320C04719210120C047082204A97B6B0B2005
:200860009847BB6A03A90120984703992C4802F069FA2C4B21462C481C8002F063FA2B4BB0
:200880006A6829685A60196009F0FAFA3146284803F08EF90220FFF7F9FE3146254803F08E
:2008A00087F9254802F0EAFE00F090FD0120FFF7EDFE03F0BBF9044600F0BCFD14F0FF0F46
:2008C000F7D101F069F8F4E7D801001000400340080009400C4009402C20094078E00000E4
:2008E000A0E00000B8E0000070E0000074E00000CCE00000E000002000E1000040E300008C
:20090000F0E3000008E10000CCE3000010E1000018E100001CE10000D4340020E0E100009C
:2009200040E100003C2A002054E10000F42B0020680100202C00002050DF00002DE9F04151
:2009400004880646772C30D07E2C27D024B1002333800320BDE8F08103F022F92F4F304B90
:20096000304D3A6818702C60002A55D02346A0462D4C04F8038093680021802098472B6880
:20098000013357F823202B60002AF2D1DBB2274A1370772333800120BDE8F081204B1B7816
:2009A0008B421CD00120BDE8F081DFF880801D4D98F800201E4F00233B602B60002AE8D0BE
:2009C000194CE256002A18DB2B6898F80020013393422B60F5DB3B68002BECD1D9E7114D0D
:2009E000114CDFF84880124F2B683A68E15C013201F07F01E1543A60E7E7084A084952F8FA
:200A000023200978002003F06FF90028ECD17E2333800120BDE8F0811346B8E750000020BF
:200A2000FC34002014050020702A00204D2A00201005002010B40E4B1C78B4B10D4A1368BF
:200A4000984212D00432002303E052F8041B884202D00133A342F8D107490848CA5C62F09F
:200A60007F02CA5410BC03F06BB90023F4E700BF4D2A002050000020702A00202C0000202A
:200A800008B500F071F80022014B1A7008BD00BF4E2A0020034A137803431846137000F03D
:200AA0007DB800BF4E2A0020034A137823EA00031846137000F072B84E2A002010B5064C18
:200AC000042023685B699847236804205B6B98470128F9D110BD00BFB8010010F0B593B040
:200AE00009F0C6F90746FFF7E9FF194B4FF4A0601B68DB6998470121164B174A19601368EE
:200B00009907FCD500F0DCF9144801F06BF84822684613490DF064F8009C621C0FD06D4676
:200B2000104E336820469B6B9847336820469B694FF40051984755F8044F631CF1D10FB158
:200B400013B0F0BD13B0BDE8F04009F095B900BFB801001028200860282008403C00002022
:200B60006CE10000B4010010094B1A6802B17047012210B5074C1A6023680620DB6B984798
:200B800023680720DB6B9847C022034B1A6010BD18050020B4010010A0200240C022074BCF
:200BA000074908701A60C20744BF402243F8102C830702D58022034B1A607047A0200240CA
:200BC0004F2A00209020024008B5034B1B685B689847C0F3804008BDB401001028B101285B
:200BE00006BF054BD86800207047044B18686FEA503000F0010070471C050020C020024016
:200C000008B100207047034B18686FEA903000F001007047C02002408138012801D90020B7
:200C200070470D20FFF7D0BF8138012801D9002070470E20FFF7C8BF802870B514460AD00C
:200C4000812807D1E1B9BDE87040184B10461B685B6B184770BD0123144D154993402A684E
:200C60000B60936B204698472B6820460021114A1B689847E0B21049BDE8704000F0E4BF1C
:200C800001230A4D0A4993402A680B60936B204698472B6820461B68064A002198472B6814
:200CA0002046BDE870401B6B184700BFB4010010E020024000400720D50C000008B50D229A
:200CC000FFF7BAFF012008BD08B50E22FFF7B4FF012008BD0D2838B50AD00E2800D038BD0C
:200CE0004FF08052BDE838404FF4804100F07EBD0E4C204603F070F80028F0D00421204609
:200D000003F056F80A4B1D68C5F3403525B900F03BFAE560A06038BD00F036FAA368C31A46
:200D2000E3600448BDE83840FFF784BE1C050020C0200240B4E1000030B5042100244FF466
:200D400080151A4A1A4B126883B08DF8004001928DF801400DEB01001D6000F0CDF820B966
:200D6000FF20144B1D6003B030BD0221684600F0E3F8104B1D6010B9FF2003B030BD9DF847
:200D80000030EF2B03D0C22B01D02046EBE79DF80100A0F11103012B05D9143801288CBF3B
:200DA00000200120DFE70120DDE700BFDCE10000A02002409020024030B505224FF48015F3
:200DC00083B0114B02AC04F8042D1D6000F0DAF82046012100F090F820B910E09DF80730D5
:200DE000DB0706D501210DF1070000F0A5F80028F4D14FF48012054B1A6003B030BD034B08
:200E00001D6003B030BD00BFA02002409020024030B583B0FFF7D0FF08B903B030BDB922E9
:200E20004FF480150A240C4B02A800F8012D01211D6000F061F8094B1D60FFF77DFF631ED9
:200E40000028EAD013F0FF04F7D14FF48012034B1A6003B030BD00BFA020024090200240F2
:200E600010B50A2182B0124800F09EF8114B14201B68114CDB6B98474FF48013AB210F4AE0
:200E800002A8236000F8011D1360012100F034F808B1FFF791FF4FF48012074B1A60FFF788
:200EA0004BFFA0F10100B0FA80F0400902B010BD00093D00B401001090200240A020024075
:200EC00008B5FFF7CDFFFFF7A3FFBDE8084000F0C7B800BF08B5064B02201B685B6B984788
:200EE000012812BF0020034B186800F0010008BDB801001078200840F0B583B004460E4635
:200F0000FFF7E8FF074688B186B10A4D26442B6814F8011B5B684FF0804098472B6801A9DD
:200F2000DB684FF080409847B442F0D1384603B0F0BD00BFC4010010F0B583B004460E46F1
:200F4000FFF7C8FF0746B8B1B6B10D4D264409E02B684FF08040DB689847019B04F8013B82
:200F6000B44209D02B6800219B684FF08040984701A90028ECD10746384603B0F0BD00BF94
:200F8000C401001010B582B0FFF7A4FF40B1054C236801A91B694FF0804098470028F7D123
:200FA00002B010BDC4010010F0B5254D07462B6885B002205B690E4698472B6802205B6B1D
:200FC000984701280446F8D12B684FF48070DB6998471C4B1C4A1C6013689B07FCD54FF097
:200FE000030E08250023194919480A68044622F00F0200680A60C1F80CE0019500971A46EA
:20100000076814494FF08040B847134B29461B6800965D6C09224FF0FF334FF08040A847CD
:201020000E4A136843F002031360236803A91B694FF0804098470028F7D105B0F0BD00BF88
:20104000B8010010282008602820084014000040C4010010006CDC02B4010010040000400B
:2010600010B5174B4FF480701B681B6A98470121144B154A196013689B07FCD5134C082061
:2010800023689B6B984723684FF400519B6908209847236809209B6B984723684FF40051FE
:2010A0009B690920984723680A209B6B984723684FF40051BDE810409B690A20184700BF2A
:2010C000B80100102820086028200840B401001010B5064C042023685B699847236804202A
:2010E0005B6B98470128F9D110BD00BFB801001000200021F8B5194A194BC2E900011B681F
:2011000004205B6B9847012801D0FFF7E1FF144B00201B68DB6998470121124B124A1960BD
:2011200013689B07FCD5114A11491368096823F4807323F001030F4C13600B6820460E4901
:2011400098470427312640F2212001220B4D0C490C4B27602E6008601A60F8BD780200204E
:20116000B801001028200860282008400C000140C801001000000140002100043C0001405D
:20118000080001400400244310B40949094A0B68146808688342FAD1DA010023064902EB09
:2011A0005462C1E9002310BCD1E90001704700BF082009400C2009407802002010B50B4916
:2011C0000B4A0B68146808688342FAD1DA010023084902EB5462C1E9002302F03DFB00B929
:2011E00010BDBDE8104002F009BB00BF082009400C2009407802002010B508F039FE034BF6
:201200001C6808B908F038FE204610BD082009402DE9F04108F02CFE0124002580464FF4FB
:2012200080314FF480701A4E1A4B1B4F32683D601C60186019601368284623219847336848
:2012400020461B6824219847336825211B6802209847124A1249136843F4E02313600D60D0
:2012600008F012FB0F4B1049104A1B6800F50070086014603C601B6914209847B8F1000FAD
:2012800001D0BDE8F081BDE8F04108F0F5BD00BF8401001004200940000024430020094056
:2012A00008200940B00100101C200940A0022443431E012B10B419D9042801D010BC7047AB
:2012C00000231A4610F004001CBF0E4C216013B101210D4B196012B101220C4B1A6000283B
:2012E000ECD001220A4B1A6010BC704710F001031CBF084A116010F00202E3D0064C216091
:20130000E0E700BF2020094080022443A0022443C0022443182009401C200940014B1868D1
:20132000704700BF2C05002008B50AF0C9F9184B1860FFF743FF174B1B686BB9164B1B686D
:20134000E3B9164B1B6833B100204FF480321449144B08601A6008BD4FF48072114B1A60A6
:2013600008F092FA00F205200F4B20F4FF7020F001001860084B1B68002BE2D00020012276
:201380000A49084B08601A6002F0FEFCD9E700BF2C050020A000244380002443C0002443F4
:2013A000C0022443042009401C20094080022443012203490348044B08601A60704700BFC8
:2013C00000000840FFFF0F00000C0840F8B508F04FFD124AB0FA80F01368012B0BD0012357
:2013E0000F4C104D1049114A400925600B601360C3070FD4F8BD0E4F094D0A4E0A4C0B49BE
:20140000400940F0020017602E6023600B601360C307EFD5BDE8F84008F02EBD000C084049
:2014200000000840FFFF0F000C0008400401004351E5CC1A012203490348044B08601A60B4
:20144000704700BF00000840FFFF0F000C00084010B50446C0B200F07DF9204610BD00BF94
:2014600070B506460024451E04E015F8010F00F071F9013430460CF03BFDA042F5D80A2061
:2014800000F068F900F07AF90128FBD0204670BD70B50446B0B10078C0B1A9B1002566185B
:2014A00004E014F8010F38B1B44205D000F052F9631C05F10105F4D100F060F90128FBD0C0
:2014C000284670BD0546F7E70D46F5E70546F3E710B40B4B0B4C13F8012FFF2A0DD1A3425C
:2014E000F9D1094A39B11144013801390B78914200F8013FF9D110BC7047044AF2E700BF5C
:20150000C7FF0100CFFF0100F0120050C8FF010038B50C4D02202B685B6998472B680220C8
:201520005B6B984701280446F8D12B684FF40070DB699847044B054A1C6013689B07FCD559
:2015400038BD00BFB801001028200860282008402DE9F04340F2F275DFF8DC8083B0FFF790
:20156000D7FFD8F800302A4EDB682A4898473368294C5B69152098472368DFF8C090274F79
:2015800023F4FE63D9F8002023F0020323603D60D36B03209847082012222149D9F80030A3
:2015A00008600092D3F840900322132302211948C847D8F800206023D2F8048019494FF442
:2015C000E1321448C047142140F2011340F2013E154A164811600268154942F0100202600D
:2015E0000868144A002818BF734613603D600B6853B115202368326843F0500323601369FF
:2016000003B0BDE8F043184703B0BDE8F08300BFB001001000100040381000404410004029
:2016200090200240006CDC02341000402C1000403005002030100040D0010010B4010010F3
:2016400008B5064B02201B685B6B9847012812BF0020034B186800F0010008BDB8010010CB
:201660006C20084038B50446FFF7EAFF18B1254A13681907FCD4032C03D0234B1B6803B136
:2016800038BDFFF7DDFFE0B9204D4FF400702B681B6A9847032C2AD001211D4B1D4A196040
:2016A00013689B07FCD5032000F0B8FA022000F0B5FA132000F0B2FABDE83840122000F0A8
:2016C000ADBA154B15481B68DB689847144B15201B685B69984740F2F270124A12491368C1
:2016E00023F4FE6323F0020313600860CCE72B684FF400709B6A98472B684FF400701B6BD6
:201700009847C9E71810004030050020B80100102820086028200840D00100100010004043
:20172000B0010010381000404410004010B508F09FFB0446054800F055FA0022044B1A60B4
:2017400004B110BDBDE8104008F096BB5C0000203005002010B50446FFF772FF08B9FFF7CB
:20176000F7FE044B2146BDE810401B680248DB69184700BFD00100100010004008B5FFF7B6
:201780005FFF18B1024B1868C0F3C00008BD00BF1810004070B5FFF7BBFE40F2F2710D4B35
:2017A0000D4A1B68116013F0500F11D00B4C0C4E0C4D06E0336828461B6998470A4B1B6867
:2017C0001BB92368DB06F5D570BDC0B29847EFE770BD00BF40100040441000401810004033
:2017E000D001001000100040300500202DE9F04740234FF0000882B00F461646CDF8008044
:201800000193054608F034FB01204FF480714FF48032474B4446C3F80080464BDFF85881E0
:20182000186019601A60D8F8003020463F211B6801349847042CF6D10024DFF83C81D8F861
:20184000003020463F219B6801349847032CF6D1394B1B68FFF7EEFD384802F04FFB044697
:2018600030B1A3680BB1032098472468002CF8D16B1C0CD00021324B324A43EA8503196092
:20188000136846F000523A4328461B689847002401272D4EDFF8E4903368C9F800409B6946
:2018A00007209847684609F021FF00F085FA00F033FA264826490368326823F00303036071
:2018C0000B68244D23F00F030B6093693820984738462C6009F02AFFDFF8A4A01E481F4A4B
:2018E0001F49204B2C60DFF85080CAF80040076014601D4A0C60C9F800401C60D8F80030B5
:201900001A491368096823F0030313604B68184803219847174A33682C60CAF800401760D5
:201920009B6BD8F80020984702B0BDE8F08700BF00002443042009402C2009403405002083
:20194000001A4442B4010010B8010010001009400810094040100940880104434001224390
:20196000440122430800094024220840D80100100040034018100940840100100C400940D7
:2019800020042243034A136823F00403136030BF704700BF10ED00E070B508F069FA02F0B5
:2019A00099F918B1BDE8704008F066BA7E4802F0A5FA0225044648B1636823B19847854259
:2019C00028BF0546EDB22468002CF5D109F078FE764B04461B68002B40F0858001F03CFF2F
:2019E000002840F09380012D00F0C680022DD9D1611E2846FFF75CFC6B4802F07FFA0625BB
:201A0000044600287BD0A3680BB1022098472369246825EA0305002CF5D1FFF70BFD6B07B0
:201A200005F006046ED4002C40F0A08000F0C4F9002009F07BFE5E495E4A0B685E4823F02F
:201A400003030B601368016843F00F0313608B69392098470023594A5949136018461360A1
:201A60000B6007F037FF062C00F08980554C564D564E2B682368326823F0030323605368AC
:201A80000321534898474C4B1B689B6B98472B6808F038F800214F4A336811604C485B68D1
:201AA00001219847012123684B4A43F00303236011602B6808F05AF809F004FEFFF77EFB6F
:201AC000FFF7B8FC384802F019FA044628B1E36803B198472468002CF9D108F0CDF9BDE8F1
:201AE000704008F0C9B93D4B1B681B1A022B38D4A3F28F23002BBFF671AF012332E0FFF7D0
:201B000099FC06240022344B1A608CE701F0ACFE0646FFF739FB361A002E7FF743AFFFF78B
:201B2000FDFB00EB4620031BA3F28F23002B2DDB012D31D1031B082B25D404F580310B1A7B
:201B400011EA230138BF01460220FFF7B1FB244A136823F00403136030BFBDE8704008F0B2
:201B60008BB900239D4228BF1D4637E7124B20461B689B69984759E704F58031E4E70220B7
:201B800008F0C8F872E704F10801DDE7022DD1D0012D7FF407AFCDE7022D7FF403AF0146FC
:201BA0002846FFF785FB27E734050020800224430010094008100940B801001040100940D5
:201BC00020042243242208402C200940D801001000400340800104430C400940182009400F
:201BE00010ED00E00146014802F08AB9340500200146014802F0D2B93405002010B5054872
:201C000002F078F9BDE81040034B20211B6803201B6818473405002084010010431C0ED02A
:201C200010B5074B04461B684FF4C0421B68002198470022034B43EA84031A6010BD7047D6
:201C4000B4010010001A444238B504460D4608F00FF901230549064AA3400B6042F82450D7
:201C600000B138BDBDE8384008F006B9E0200240380500200021064B03F1800243F8041F05
:201C80009342FBD1034B10201B681B69184700BF34050020B0010010F8B500240126084B9B
:201CA000084F1D681D6006FA04F32B42E0B203D057F8243003B198470134202CF3D1F8BDD2
:201CC000E0200240380500200022412300B585B002A80292039309F009FD042008F0B8F856
:201CE000032810D00321042008F08AF8042008F0AFF80328FAD100901C234FF0405200219D
:201D0000044808F035F802A809F044FD05B05DF804FB00BF00A00C400022412300B583B04C
:201D200068468DE80C0009F0E1FC042008F090F8022808D00221042008F062F8042008F043
:201D400087F80228FAD1684609F024FD03B05DF804FB00BF0022412300B583B068468DE8F0
:201D60000C0009F0C3FC012008F072F8012803D00121032008F044F8684609F00BFD03B045
:201D80005DF804FB0022412300B583B068468DE80C0009F0ABFC012008F05AF8012803D04B
:201DA000044B986B07F082FD684609F0F3FC03B05DF804FB4800001010B54123002482B0E7
:201DC00068460193009409F091FC0320214608F017F8012008F03CF818B1044B986B07F0B7
:201DE00065FD684609F0D6FC02B010BD4800001008B509F00FFD30B1044B5B88022B14BF5C
:201E00000220012008BD022008BD00BFB805002030B583B009F0FEFC40B901A9124809F036
:201E200001FD01280AD0002003B030BD0E4C6388022B08BF0120F0D103B030BD09F040FCF1
:201E4000094C00F1400504E009F03AFC401B002808DA60880228F7D1A0F10200B0FA80F0F8
:201E60004009E9E76088F7E7B805002030B5012489B002A840F60202182109F01FFF114AD4
:201E80009DF81830126803F0F80395880E4A6FF3C30302A801A9ADF81A508DF818308DF8AB
:201EA0001640079209F0BEFCA04202D0002009B030BD02A809F000FD001BB0FA80F04009E8
:201EC00009B030BDB00000208400002008B5FFF7CDFF012801D0002008BDFFF799FFC0B28A
:201EE00008BD00BFF8B50E4D00200E4F2C680E4E06E02379022B06D024682B689C4209D08E
:201F00002379032BF5D13B782BB124682B6801209C42F5D1F8BD304601F012FF0120EBE79E
:201F2000C0080020522A00201802002008B5B4290A46014628BFB42202480BF051FE002041
:201F400008BD00BFCE08002030B583B009F0B0FE044609F05FFC08B903B030BD01A90A484D
:201F600009F060FC0128F7D109F0AAFB00F1400504E009F0A5FB401B0028EDDA638803F49E
:201F80004063002BF5D0E7E7010001040B2807D00C2801D001207047042A10D0022070470C
:201FA000082AFBD10029F9D0084A4B1E073112F8010903F8010F8B42F9D100207047002988
:201FC000ECD0034B00201B680B607047E70500204006002010B542F20343002484B002A87F
:201FE00001A902940394ADF8083009F01BFC20B19DF90A30803302D0204604B010BD9DF87B
:202000000C0000F00C00A0F10400B0FA80F0400904B010BD30B583B009F0FCFB68B3184CB8
:202020006388022B03D028E0FFF7D4FF18B109F0F1FB0028F8D101A9124809F0F3FB09F061
:202040003FFB00F1400507E06088022809D109F037FB401B002803DA09F0DCFB0028F3D1F6
:20206000608842F20243984207D042F20743C01AB0FA80F0400903B030BD012003B030BD32
:20208000B8050020010001040B2810B502D00124204610BD082A02D00224204610BD0029B5
:2020A000FAD00F4A01F1080313F8010D8B4202F8010BF9D109F0AEFB78B10A4B5B88022B1A
:2020C0000BD1FFF7A7FF012814BF03240024FFF79FFE012818BF0324DAE70024D8E700BF24
:2020E000E0050020B805002030B585B009F092FB18B1104B5B88022B02D0FF2005B030BD97
:202100004FF00002002442F2034563F301028DF80C209DF80C0000F00303022BEED101A9A7
:2021200002A802940394ADF8085009F07BFB0028EFD1E2E7B805002070B5044609F06AFB01
:20214000C0B1174B5B88022B1FD107F091FE05468CB9144B00211E680023134C16F1804047
:20216000226841F10001994208BF90420FD326603DB1012070BD0B4A0B4B12681A60002DBE
:20218000F7D107F079FE012070BD002070BD09F097FA064A06491368086001331360E6E7EE
:2021A000B805002004300440480600204C0600204406002008B509F0D7FD012814D009F0F0
:2021C00029FB88B1094B5B88022B0DD109F022FB30B9FFF789FFFF2806D0C0F3801008BDDE
:2021E000FFF7F8FE0028F4D0002008BDB805002008B502E0FFF7EEFE18B109F00BFB0028D4
:20220000F8D1FFF707FF09F047FCFFF7D5FD00220D4B0E4819794280022912D00C4B1A79DA
:20222000022A04BF00221A710A4B1A79022A04BF00221A71084B1A79022A04BF00221A71FC
:2022400008BD1A71EAE700BF80060020B805002010070020A00700203008002008B509F00F
:2022600083FD012801D0FFF7C3FF012008BD00BFF8B509F079FD012830D0FFF76BFD09F0EB
:20228000C9FA38BB012588241D4A1E4856791E491E4B65F3830690F805E04F7956715E7996
:2022A00065F3830E65F3830765F38306106080F805E00160C480D480CC804F710B601A60BB
:2022C000DC805E71FFF75EFD09F07EFCA84207D00020F8BD0E4B5B88022BD3D10120F8BD96
:2022E0000C4B1878003018BF012009F087FCFFF7BDFD0128ECD1BDE8F840FFF789BD00BFE5
:202300008006002010070020A007002030080020B8050020522A002070B584B0072800F2CE
:20232000AD80DFE800F01F27323C3F696E04544C217709F06FFA00282DD06388022B2AD119
:20234000FFF768FE012814BF0324002409F04AFC012879D0FFF75CFD012800D00324204654
:2023600004B070BD01297DD0002971D00224204604B070BDA1F10B030F2BF7D8404CC9B27E
:20238000A37B8B4207D0A173D3E73D4C618609F041FA0028D1D10024204604B070BD384C50
:2023A0002186C6E731F00702E0D1354C3548237EC1F3400561F30003DBB243F002030678BC
:2023C00065F38203657EC1F3800103F0870362F3C71362F3C7158E42657623760170A8D1FD
:2023E000228B294B03A918465A8009F01BFA002814BF00240324B2E731F00103B6D1CCB2C1
:20240000ADE701F115031A2BB0D86FF014030C241E4A01E052F83430994229DD14F1FF349B
:20242000F8D209F0F7F90028B5D01022174B02A903EBC404A38803A8ADF80E30ADF80C20BD
:20244000002409F0EFF98AE70020FFF775FE81E7019109F089FC01289DD0FFF7C9FE019918
:202460000C467CE7FFF704FF01287FF477AF92E7064B074A03EBC4031360D2E701246EE776
:20248000B8050020522A00203806002020E20000B000002081B1F0B50C4685B0102800F20B
:2024A0009C80DFE800F088839578615E7D5828221D9A9A1915100B00022070470523002098
:2024C0000B6005B0F0BD6FF0140300200B60F8E71A2300200B60F4E70B2300200B60F0E71C
:2024E0004B4B00201B780B60EBE74A4B00201B785BB20B60E5E709F08DF900286FD0464B53
:202500005B88022B08BF002769D14FF000030222002562F38303039502958DF80C3042F2F9
:20252000034609E001A902A802950395ADF8086009F078F9002858D09DF80C3003F00C034C
:20254000082BEFD0002F59D19DF90A30236080335BD00020B5E7304B002093F91C300B6065
:20256000AFE700200860ACE700232B4A0B60137E03F001030B60127E520744BF43F0020390
:202580000B60264B1B78002BE3D00B68002043F004030B6095E7204B00201B8E0B6090E724
:2025A0001F4B00201B681B680B608AE71A4B00209B7B0B6085E709F02DF930B1164B5888FC
:2025C000A0F10200B0FA80F040092060002078E7114B00205B8E0B6073E7012071E7FFF76D
:2025E00047FE012805D107468FE780238DF80A3027B96FF07F030320236062E709F0B4FB1A
:202600000128A1D0FFF7F4FD9EE7032059E700BF502A0020512A0020B8050020522A0020E4
:20262000B000002070B588B0064609F0F3F8002848D03A4B5B88022B08BF002542D109F070
:202640003FF86FF01F04241A07E0FFF7C3FC012840D109F035F8C4423ED509F0DBF800287A
:20266000F3D102A842F60142182109F027FB00222B4B2C4CF6B28DF81760217806930492A1
:202680009DF81430891A18BF012162F3030301208DF8143009F0ECFA02A801A909F0C2F89A
:2026A000F8B1207800E070B3BDF80A3003F44063002BF8D0BDF80A40A4B2B4F5105418BF21
:2026C000012410E0FFF7D4FD01281AD00124204608B070BD0028C4D0C5B90224204608B01D
:2026E00070BD20780124003018BF012009F0D4FA002DECD009F038FB0128E8D0FFF778FDA0
:20270000E5E705469BE7FFF73DF9CAE709F02CFB0128E2D0FFF76CFDDFE700BFB805002087
:20272000CE080020522A002010B50C46B42C2246014628BFB42204480BF052FA2046BDE806
:202740001040FFF76FBF00BFCE08002010B509F00BFB012825D009F05DF8B8B11B4B5B886E
:20276000022B03D012E0FFF735FC18B109F052F80028F8D1FFF7B8FCFF2812D000F003009D
:2027800010F1FF3418BF0124204610BDFFF770FD0128044608D009F0E7FA012801D0FFF75E
:2027A00027FD0124204610BDFFF79EFCFF2805D000F0030414F1FF3418BF012409F0D4FA1F
:2027C0000128EFD0FFF714FD204610BDB80500202DE9F843574E80460F46356808F070FFE5
:2027E000554C241A03E008F06BFFC44208D52B79022BF8D0032B06D000242046BDE8F8838B
:202800002B79032BF8D135682B7A032B07D995F808905FFA89F9A9F10804BC4207DD002421
:202820002B682C722C7133602046BDE8F883404605F1090122460BF0D3F909F10303EB5CB5
:202840003E4F5BB23B7009F1040915F80930DFF8048103F03F032544D5F80D5088F8003012
:2028600008F0D8FF00284DD0354B5B88022B08BF4FF0000946D108F0CDFF48B1304B5B8873
:20288000022B05D10020FFF757FCB9F1000F4AD12C4BB5F1404FD3F800900BD908F010FF06
:2028A000294B1B68C3F17E4303F57203C34248BF09F1FF396FF4BF704FF0FF310022DFF807
:2028C00098E00023DEF800E0B0EB0E0061EBEE71401941F10001801841EB0901090241EAC3
:2028E000106143F6095200020AF09AFF174B184A1B7810605BB10022336819681A72316010
:202900001A717AE7FFF7B4FC4FF00109B3E73978042049B289B207F0B5FE98F800100320CA
:2029200007F0B0FEE7E709F01FFA0128B0D0FFF75FFCADE7C8080020FAFEFFFF512A002003
:20294000B80500204C06002044060020522A002040060020502A0020F028002010B508F02D
:2029600059FF80B1144B5B88022B0CD10020FFF7E3FB0446BCB9BDE8104000230F4A8021BD
:202980000F4801F021B8FFF773FC0128F3D10020FFF7D2FB044609F0E7F90128EAD0FFF7E5
:2029A00027FC002CE7D0BDE810400023034A4FF48731034801F008B8B80500205D29000052
:2029C000500600202DE9F0470025354F3548FFF709F909F0D7F83846902229460BF00EFAAC
:2029E0009022294630480BF009FA902229462F482F4C0BF003FA902229462E480BF0FEF9AC
:202A00002D4E2E4B2946802220461F60376075600BF0F4F9B9234FF0070A4FF00209FF21E2
:202A200001224FF0190C4FF06F0E42F60108A62742F20200E373224B84F8199084F818A0F3
:202A400026616361268B1F4BA4F8008084F80EC084F81BE027775E801971A176627384F8C5
:202A600037201880FFF704FC012803D02C462046BDE8F0870446144809F02EF92046FFF75F
:202A80005BFB2B46114A4FF48731114800F09CFF2946104801F08CF82046BDE8F08700BFB8
:202AA000800600207000002010070020A0070020B805002030080020C0080020C8080020D5
:202AC000700600203806002018E200005D290000500600201802002008B500F08BF880B270
:202AE00008BD00BF00F010B938B50C4D04202B685B6998472B6804205B6B9847012804462A
:202B0000F8D12B6840F20140DB699847044B054A1C6013689B07FCD538BD00BFB80100103E
:202B20002820086028200840034B1B68002B14BF01200220704700BF84090020F8B50388E8
:202B40000446002B2ED0B3F5847F05D1184B1B788B4205D00120F8BD002323800320F8BD75
:202B6000144D2B6873B1144B144A1B6812685B68022017460026984730182B6847F1000128
:202B800098472E600E4B40F201401B689B6A984701210C4B0C4A196013689B07FCD50B480C
:202BA000FFF726F84FF4847323800120F8BD00BF7202002084090020CC01001004800240AB
:202BC000B80100102820086028200840B400002008B5064B04201B685B6B9847012803BFD3
:202BE000034B1868C0F34000002008BDB80100103C20084070B5274B1B68BBB126480023AB
:202C0000024612F8011B39B90133042BF9D1002400252046294670BD0021204AC15402EB4F
:202C2000C303D3E900452046294670BDFFF7D0FF00282BD01A4A1B4B12681A420ED11A4A00
:202C40000121134611601A68002AFCD110464FF4807106F039FD0122144B1A6007F008F965
:202C600006460F4A1368DB07FCD5114B114A1B6812685B680220154600249847241845F118
:202C80000005002EC5D107F0F7F8C2E7FFF72CFFD0E700BF84090020880900208002002045
:202CA0000880024001000080F09F0240A8025042CC0100100480024038B500240D4D0E4A56
:202CC0002C6013680D4923F00103096813604B6931209847224620464FF4807106F0F4FCD0
:202CE0000122074B2A6019782246BDE83840054800F0FABFA80250420C800240B0010010FE
:202D000072020020C800002010B5074C2378802B00D010BD00F044FF20700021BDE8104063
:202D2000024800F045BF00BF72020020C80000200AB90020704708B508461146FEF7A8FB86
:202D4000002008BD0FB400B583B004AB53F8041B04481A46019300F025F803B05DF804EB86
:202D600004B07047D8000020102970B50C4605460CD90B4E01E0102C0BD92B68102231467A
:202D800068689847103C0028F5D070BD08460029FBD022462B6868680149BDE87040184713
:202DA000A4E200002DE9F04F834688464FF000098FB0019298F80030002B00F0E380252BF9
:202DC00008BF45461DD0444603E0252B00F044812C466378651C002BF7D1454500F0D280B5
:202DE000A5EB080641463246DBF80030DBF804009847002840F0B8816378B144002B00F001
:202E0000C1806B7805F10108002B00F0BB800025A3F12002102A1BD8DFE802F0171A1A1419
:202E20001A1A1A1A1A1A1A111A0E1A1A090045F0100518F8013FEBE745F00105F9E745F0AA
:202E40000605F6E745F00805F3E745F00205F0E7A3F13102082A00F2D580002404EB840480
:202E600003EB440418F8013F303CA3F13002092AF4D92E2B00F0CE804FF0FF326C2B00F00C
:202E8000E180682B00F02681782B00F28180DFE813F079007F007F007F007F007F007F00D4
:202EA0007F007F007F007F007F007F007F007F007F007F007F007F007F007F007F007F0022
:202EC0007F007F007F007F007F007F007F007F007F007F007F007F007F007F00AC027F00D3
:202EE0007F007F007F007F007F007F007F007F007F007F007F007F007F007F007F007F00E2
:202F00007F007F007F007F007F007F007F007F007F007F00A9027F007F007F00A602A30246
:202F2000A0027F007F007F007F007F007F007F007F007F007F007F007F007F007F007F007E
:202F40007F009D027F007F007F007F007F007F007F007F009A027F009702940291028E02EE
:202F60008B027F0094027F007F007F007F00880285027D007F007F0082027F007F027F0024
:202F80007F00720248460FB0BDE8F08F45F4407505F4E063B3F5806F08F1010800F0A980F1
:202FA0005ED9B3F5C06F00F07D81B3F5E06F00F07281B3F5A06F7FF4FDAE019A012C136823
:202FC00088BF04F1FF3402F104028DF8203098BF0024EB07019200F1B18121465846FFF796
:202FE000C3FE002840F0C0800122DBF8003008A9DBF8040091449847002840F0B580A144A4
:20300000A144D7E62A2B00F0F3812E2B4FF000047FF432AF98F8013008F10101A3F13002E3
:20302000092A61D8002202EB820203EB420211F8013F303AA3F130000928F4D96C2B884685
:203040007FF41FAF98F801306C2B00F0388108F1010845F0600517E745453FF4D2AEBFE6B2
:20306000B3F5807F00F08580B3F5407F7FF4A2AE0198C24B15F4804FC14F18BF1F46034677
:203080000168043301930A460023002900F06B810DF1330E7046110941EA03714FEA131C6E
:2030A00002F00F0663460A46B95D00F8011D52EA0301F0D1BEEB000600F05781033678219A
:2030C0003022232300F8011C00F8022C00F8033CC71E23E098F80130682B00F0978108F1A9
:2030E000010845F04005CFE62A2B00F07A828846C2E601990B460F6804330193002F00F095
:203100006D823E782EB13E4616F8013F002BFBD1F61B002A02DB964228BF1646B4428CBFEE
:20312000A41B0024EA070FD421465846FFF71CFED0B93946DBF800303246DBF8040098478A
:2031400090B9B144A14435E63946DBF800303246DBF80400984738B921465846B144FFF7A0
:2031600003FE00283FF44CAF4FF0FF300FB0BDE8F08F002AB3BF012325F010050292029394
:2031800015F40053039305F0E00300F09F80402B00F0528200F24181002B00F00082202B8B
:2031A00040F03482019991F900200431D3170191002A73F10001C0F2FE81CDE90423002374
:2031C000069305F4C053B3F5805F00F09A80B3F5C05F00F07581B3F5006F00F096810026C8
:2031E0000DF1360A029B41F208029E4241F6080303EA0503C0F03481934200F0FB810027D3
:2032000041F60802934206EB070100F0378100231A460293039B7BB1069B002B40F03C815C
:2032200005F00603022B00F00382062B5548029B04BF012302460293029B0B449C428CBFAA
:20324000E41A002415F00103039304D1E90640F1D38127441C46029848B11146DBF80030AA
:203260000246DBF80400984700287FF47DAF102FB14440F26D813D4602E0102D40F26A8176
:20328000DBF8003010224049DBF804009847103D0028F2D068E7019A136804320192C3F89A
:2032A000009087E5DBF8003001223849DBF80400984700287FF458AF09F101097AE598F820
:2032C000023045F0800508F10208DDE5402B00F0AA8100F2B280002B00F07581202B40F007
:2032E000DF80039A019906920A780023CDE904230B460433019305F4C053B3F5805F7FF4FC
:2033000066AFDDE90423134300F09D810DF1360307939A46DDE90423D00840EA4370DE080E
:2033200002F007013346024630310AF8011D52EA0301F1D1079BA3EB0A0653E7DBF80030D2
:20334000012208A9DBF80400984700287FF40CAF2146584609F10109FFF706FD00287FF4F0
:2033600003AFA14426E50DF133003023042600F8013C0138A3E645F4C85509E6C4E200001B
:20338000D8E20000FCE20000B4E2000008E3000045F41065FCE545F48065F9E545F4885573
:2033A000F6E545F4E065F3E545F48135F0E545F40075EDE545F40245EAE545F42455E7E5CB
:2033C00045F4A065E4E545F4C135E1E545F4B245DEE545F4A135DBE545F48445D8E545F437
:2033E0004245D5E545F4E135D2E545F4C065CFE5019A08F10108134614680433002C01930B
:20340000B8BF45F0010598F8003032E598F8023045F0200508F1020836E5602B00F0BF802F
:20342000802B40F0F380019B073323F0070303F108020192D3E90023BAE6602B00F0C3807D
:20344000802B2DD1039B0693019B073323F0070303F108020192D3E90023CDE90423B0E6B6
:2034600002999342A1EB06077FF4CAAE002F08BF01270023F11902931A46CBE6DDE904237A
:2034800013433FF4C4AE754B15F4804F744A18BF1A4602230293BDE60123724A0293CBE621
:2034A00005F4C053B3F5805F00F0D180B3F5C05F40F0AF800023002206930023CDE9042334
:2034C000DDE90401684B15F4804F684E024618BF1E460B46134300F0B6800DF136030793BF
:2034E0009A4602460B46110941EA03711F0902F00F003B460A46315C0AF8011D52EA0301B3
:20350000F1D1079BA3EB0A066CE6DDE9046732463B46134300F097800DF136039A4607931F
:20352000304639460A2200230AF07AF93032304639460AF8012D00230A220AF071F9064654
:203540000F4656EA0703EBD1079BA3EB0A0649E657B13D462A46DBF800304549DBF804003E
:20356000984700287FF400AE029D32464D445146DBF80030DBF80400A946984700287FF4A1
:20358000F3AD039BB944002B3FF43AAD21465846FFF7EAFB00287FF4E7ADA1440AE401992F
:2035A0000B460A6804330193002A4FEAE27373F10001BFF602AE524263EB4303CDE90423F6
:2035C00001230693FDE5019A13680432194601920022039BCDE904120693F2E5254F062672
:2035E00097E5019998F802300A680431019108F1020843E401273CE7214658460492FFF7B4
:20360000B3FB049A00283FF426AEADE500220023D3E50023002100220693CDE904121E4671
:203620000DF1360ADEE5039A019906920A885CE60123114A0293FFE50199B1F90020043155
:20364000D3170191B4E500260DF1360ACAE50023002206930023CDE9042352E6ECE200005E
:20366000F0E20000F4E20000C4E20000D8E20000B4E2000000E30000F8E2000010B50446E0
:20368000006830B1002100F093FA54F8040F0028F8D110BD704700BF10B50E4C2368B3B1A2
:2036A000FDF772FD23689A6893E812002144091A4AB192E8180023441B1A9268994228BF20
:2036C0001946002AF5D1044B0844186010BD024A136010BD900900208C0900202DE9F84370
:2036E000038805467BB1592B08D1872912D0822920D059232B800120BDE8F88300232B8008
:203700000320BDE8F883264A0120136059232B80BDE8F883224F39680029EAD0CB689A4217
:2037200003D026E0CB689A4222D189680029F9D13960DEE74FF00009194FDFF868803C6859
:20374000002CD6D0002604E0A3682646002BD0D01C46204600F040FB0028F5D0224688215A
:20376000E06800F0C1FA78B1404600F0E9FAEBE739608B68002BBCD0D86882420BBF9B68EE
:2037800019468B609B68F5E7E060A3682EB1B360C4F80890FFF780FFD1E73B60F8E700BF09
:2037A00090090020E000002010B50446104800F0C7FA1049E3680A684BB142B194420FD07E
:2037C000134601E09C420BD09B68002BFAD10A4BA2601B680C60E360BDE81040FFF75CBF6E
:2037E000054B1B68E360BDE81040FFF755BF00BFE000002090090020180B0020014800F0C0
:203800009FBA00BFE000002010B5044600F0D0FA2046BDE81040FFF7C7BF00BF10B5044622
:2038200000F0CEFA2046BDE81040FFF7BDBF00BF10B5044600F0CAFA2046BDE81040FFF730
:20384000B3BF00BFC068B0FA80F04009704700BF05C81044704700BF024B1868003018BFCB
:203860000120704790090020024B186808B1024B18687047900900208C09002010B50F4B20
:2038800004461A68824213D072B19368984208BF134605D043B19A68944201D01346F9E7F2
:2038A000A2689A60FFF7F8FE0023A360E36010BD82681A60FFF7F0FEF6E700BF9009002045
:2038C000F0B5038883B005465BB14A2B04D188291BD0012003B0F0BD002303202B8003B023
:2038E000F0BD194800F00AFB044630B1A168201DFFF78AFF2468002CF8D10122134B1A7049
:203900004A2301202B8003B0F0BD0F48019200F0F5FA04460028F3D0019A031D9A4205D0A4
:203920002468231D002CEBD09A42F9D12146064800F034FB064E6269A369376832600BB142
:20394000E06998473760DBE794090020532A0020180B002010B50024054B06481C7000F046
:20396000C9FA2146BDE81040034800F021B900BF532A002094090020F000002070B504467B
:203980000D48049D0078A261E361656130B9A1600A482146BDE8704000F0B2BA084D094BAF
:2039A0002E68201D2B60FFF72FFF2E602146BDE87040024800F0A4BA532A00209409002049
:2039C000180B0020F000002010B5044C82B024680094FFF7D3FF02B010BD00BF180B0020E4
:2039E00070B5094B04461B783BB1084D084B2E6804302B60FFF712FF2E602146BDE8704037
:203A0000044800F07DBA00BF532A0020180B0020F00000209409002070B5094B04461B7871
:203A20003BB1084D084B2E6804302B60FFF700FF2E602146BDE87040044800F061BA00BF48
:203A4000532A0020180B0020F00000209409002010B50A4B04461B783BB9C36003612146E0
:203A6000BDE81040064800F099BA0430FFF706FF2146BDE81040024800F090BA532A002014
:203A8000940900202DE9F843DFF89C80254ED8F800503768854208D0002D35D02B4601E0D0
:203AA000002B33D01B689842FAD168B3837B89460446DBB10023837365B1AC4207D0AB7BD8
:203AC000DB0704D522468721284600F02FF82D68002DF2D1A3683BB14C4505D034600022FE
:203AE000832104F10C009847D8F80050AC4214D04DB12B689C420BD02BB11A68944208D0FA
:203B00001346002BF9D13760BDE8F883BDE8F8832B4622681A603760F6E723683760C8F8B5
:203B20000030F1E7180B00201C0B002070B586687EB1044602200A4BA0731C6004F10C0060
:203B40000D46B0470238012804D9832D02D00123A37370BD21462046BDE87040FFF792BF89
:203B6000180B002070B500250B4A0C4B14681D7084B1012601E0246864B1E37B002BFAD0D2
:203B8000A673E573204600228221FFF7CFFF2468002CF2D170BD00BF1C0B0020572A002076
:203BA000024B1878421C1A70704700BF552A002070B50F4D2C68844206D034B1234600E04C
:203BC0001BB11B689842FBD170BD0028FCD003460A4601200021074E1C6034689873998162
:203BE000184681212B60FFF7A1FF346070BD00BF1C0B0020180B0020002370B48A26064855
:203C00000649074A074D084C03700B6013602E70237070BC704700BF562A00201C0B002051
:203C2000180B0020552A0020542A00202DE9F041234D2B780BB1FFF795FF224E3378BBB1DD
:203C40002148224F0278013B02EB4201890001327C1802F01F020270A068DBB233707F5CBC
:203C6000D4F8048098B1812F06D0827BD20705D428781844BDE8F081012383734246394643
:203C8000FFF754FF337828781844BDE8F081104A146834B9ECE7A37BD9070AD42468002CF4
:203CA000F0D02B78002BF6D0FFF75CFFA37BD907F4D5424639462046FFF738FFEEE700BF6A
:203CC000572A0020562A0020542A0020980900201C0B0020024A034B10781B781844704735
:203CE000562A0020572A0020F0B40C4C2378202B11D00B4D5F1C2D780A4E2B4403F01F036C
:203D000003EB43039B00F518A8606A602770F1540020F0BC70470120F0BC7047562A002072
:203D2000542A00209809002038B5837B034CDB07256801D5FFF7FAFE256038BD180B0020FA
:203D400038B1837B013B012B03D80123014AC37313707047572A002007F0ACBC38B5094C18
:203D6000049D226822B180E82A002060002038BD024680E82A000846226007F09DFC0020C4
:203D800038BD00BF200B002010B5084C206858B100224368816822609847236823B1BDE85F
:203DA0001040186807F088BC10BD00BF200B002010B541600446FDF7E7F9206010BD00BF91
:203DC00090E80C0013440360704700BF10B50446FDF7DAF9206010BD10B50446FDF7D4F93C
:203DE00023686268C3F101031844904294BF0020012010BDF8B504880646672C0BD0792C8F
:203E000004D0CCB1002333800320F8BD85291AD11D4C002323601D4C1B4D04E00A2814D030
:203E20002B687E2B2ADD204600F052F8431CF5D1672333800120F8BDFFF7B2FE144A124B06
:203E400010701C60E7E70120F8BD00250E4C114F23680F4A581C117820603A462846FD5443
:203E6000FFF742FF0C4B2A4618688521FFF73CFF0028CED1792333800120F8BD05495A1C3D
:203E8000C8542A60CFE700BFA40B0020A80B0020FD340020240B0020180B002008B5054977
:203EA0000548802200F00CF8BDE8084000210348FFF77EBEB00B0020A80B002000010020C5
:203EC0000023013A0160027143718371704700BF10B4817942790479521A224207D00346AC
:203EE0004A1C00682240405C9A7110BC70474FF0FF30FAE700230360704700BF00687047FE
:203F000010B404685CB1A14222D023680BB906E0134699420FD01A681C46002AF8D100234D
:203F20000B6002680AB910E01A461368002BFBD1116010BC70475CB10B68236000230B60A2
:203F400000230B600268002AEFD1016010BC70470B680360F2E700BF30B4056865B1A942DB
:203F600018D02B682C460BB906E01346994207D01A681C46002AF8D10D60016030BC704757
:203F800044B10B68236000230B6005680D60016030BC70470B680360F5E700BF10B4046829
:203FA0005CB18C4212D023680BB906E01346994205D01A681C46002AF8D110BC70472CB1CF
:203FC0000B682360002310BC0B6070470B680360F8E700BF03682BB100201B680130002B20
:203FE000FBD170471846704700B10068704700BF10B5044642880021406809F0FFFE238857
:204000006288A06802FB03F2BDE81040002109F0F5BE00BF30B44588BDB141680B7863B1DC
:2040200000234A1C03E01478114601322CB10133AB42F8D1002030BC704701220A7005884A
:20404000806803FB050030BC70472846F3E700BF30B44488826854B18A420CD000230588D4
:2040600001E0914208D00133A3422A44F9D1FF2230BC1046704700234168CA5C002AF7D066
:20408000013ACA54426830BCD25C1046704700BF83688B4208D84288008800FB023081425D
:2040A0002CBF002001207047002070474188034649B100205B68194413F8012B02B90130D7
:2040C0008B42F9D170470846704700BF2DE9F8431646002206FB0105099FA8423A609DF837
:2040E00020801CD2044699464FEAD80807E04246494609F01DFD78B13444AC4207D22378DC
:20410000A01C002BF3D13C603444AC42F7D33B682BB10120BDE8F8833C60BDE8F88302208A
:20412000BDE8F8832DE9F041174D82B0009104460E4690461F460195034620220321134878
:20414000FFF7C4FF01281BD12B68187020682B68D4F804E0A168E268C3F802002868C3F850
:2041600006E0C3F80A10C3F80E20089B86744361099B80F813800777836102B0BDE8F08181
:20418000002002B0BDE8F081480C0020782B0020F8B507460C4D0D4E05F1200435608035EE
:2041A00014F8203CA4F11E0033B114F80E2C3946D20809F0BDFC28B134602034AC42EFD140
:2041C0000020F8BD0120F8BD782B0020480C0020802210B5084C82B003468DE8140003211A
:2041E00020220648FFF772FF10B9206802B010BD002002B010BD00BF400C0020942A002050
:2042000070B4114A114E1346002148F2FE0502F16004326007E09A7C824209D02033A3424E
:204220004FF001010AD21A78002AF7D0421CF2D15A88AA42F2D119B1336001E03360002338
:2042400070BC1846704700BF942A0020400C00208022F0B5104D83B003468DE82400044611
:20426000122205210D48FFF731FF012811D12B68187020682A686768A668E168C2F8020047
:204280002868C2F80670C2F80A60C2F80E1003B0F0BD002003B0F0BD440C0020182B0020AF
:2042A0002DE9F04104468020244D82B08DE821000F4690462346202203212148FFF706FF36
:2042C000012837D12B68187026682B68D4F804E0A168E268C3F802602E68C3F806E0C3F85F
:2042E0000A10C3F80E2086F81380D7B930750022FF2101200227134BB0745F70D8721970C5
:2043000019735A809A80DA801A819A72627B18465A73E289DA81FFF79BFF286802B0BDE8D7
:20432000F081002306F118003375394607F022FD2E68DCE7002002B0BDE8F081400C0020F0
:20434000942A0020300C0020802210B5084C82B003468DE81400052112220648FFF7B6FE12
:2043600010B9206802B010BD002002B010BD00BF440C0020182B0020E8B138B5FF22002570
:204380000446012102200C4B58701A73D9725D809D80DD801D819D721A70E27B18465A7382
:2043A000228ADA81FFF7D0FF044B186000B105700023237038BD7047300C0020440C002016
:2043C00038B5134B134C1846236003F1600504E020682030A842206012D20378002BF7D082
:2043E000037D002BF4D1183007F0CCFC0028EFD02068FFF7C1FF20682030A8422060ECD320
:2044000000F06CFBBDE838400348FFF707BA00BF942A0020400C0020D82B00202DE9F04FA5
:2044200048F2FE090B884B453FD00B78FF2B3CD000233E4CDFF8F8C022469A4604F160086F
:20444000CCF8004004E020324245CCF8002020D21478002CF7D0947C012CF4D154884C45D7
:20446000F1D000244F1E561C17F801BF16F8015F04F1080EAB4544D15FFA8EF4802CF3D1E0
:20448000A2459CBFA246134620324245CCF80020DED35BB353F8024F59689A68DB68046017
:2044A00041608260C360BDE8F08F204ADFF880C00021134648F2FE0502F16004CCF80020BF
:2044C00004E02033A3424FF001010DD21A78002AF7D09A7C012AF4D15A88AA42F1D100295E
:2044E000D8D0CCF80030D5E7CCF800300023038043808380C380038143818381C381BDE88C
:20450000F08F04F1080E8BEA05055FFA8EFE6E0015F0800F04F10107F5B2B1D1FCB274451E
:20452000F5D1A2459CBFA2461346ADE7942A0020400C00200B684A688360037AC26083F03A
:2045400002030372704700BF70B5094EB0684508FEF7C2FA0446FEF7BFFA2402B268A4B24B
:204560002044B0FBF2F302FB1300284470BD00BF7C2A0020F0B5344E83B001F0BDFC00F025
:204580009DF860220021314809F038FC3046F822002109F033FC402718224FF4A06520203B
:2045A0002B492C4B2C4C3560B460002537711A700870FFF7C9FF42F2107C48F2FE0E274CE9
:2045C000F0603946019500952B46C6F810C0A4F800E02A46357520466580A580E580FFF781
:2045E000A1FD1F4A04F1080310685168012203C3237A294683F002032046237240F2FF26C4
:20460000FFF74EFE4FF480732046E3816580A580E58025816581A5812680FFF719FE4FF441
:204620000073204626806580A580E58025816581A581E381FFF70CFE0C210A4803B0BDE89F
:20464000F040FFF7E1B800BF7C2A0020782B0020752B0020742B0020C0270900300C002088
:20466000F42B0020D82B00202DE9F047054610480F469046FFF742FCC0B10446DFF8349033
:20468000DFF834A00BE0D9F800304246394628466668B0472046FFF7A7FC044630B1012DF1
:2046A000F1D85046FFF796FC0346EEE7BDE8F087E80D0020EC0D0020EC0C002008B50B4883
:2046C000FFF796FC0A48FFF715FC0A4B0A49186805F0C4FC0948FFF78BFC0948FFF70AFC01
:2046E000BDE808400748FFF705BC00BF3C010020F00D00201C010020B54800001001002023
:20470000EC0C0020E80D002048B108B5044A4168106805F04DFEBDE8084001F03DBC704779
:204720001C0100200148FFF7E9BB00BFF00D002008B1FFF759BC704708B501F035FC38B13A
:20474000044B0146186805F0B5FD003018BF012008BD00BF1C0100202DE9F04107461B48BC
:20476000FFF7CCFB68B300260446B04694F8245004F10801B5424FEAD50207D3384609F0A5
:20478000D7F918B9802D1AD02E46A0462046FFF72BFC04460028E9D1B8F1000F11D00B48EC
:2047A000FFF7ACFB804507D041460848FFF7F6FB41460648FFF7D0FB4046BDE8F081A046EA
:2047C000EDE74FF000084046BDE8F081F00D0020002840D04368002B3DD070B50546014633
:2047E0002148FFF7DBFB6B685868FFF787FB044628B929E02046FFF7F7FB044620B363680F
:204800009D42F7D105F108066B6821465868FFF7C5FB6B685868FFF771FBE8B129461348E5
:20482000FFF716FC21461248FFF712FC114A28461368013B1360FFF767FF3146BDE8704090
:2048400002460320FFF710BF05F10806304602F029FE0024D8E770476A68074B516818689E
:2048600005F044FDDAE700BFF00D00203C01002030010020EC0D00201C010020B0B1436855
:20488000A3B110B504461846FFF738FB38B14068FFF79EFF6068FFF731FB0028F7D1044BE1
:2048A0002146BDE81040186805F020BD704700BF1C010020FFF7E2BF2DE9F84F0546104602
:2048C0001746894601F070FB00285AD080462846FFF742FF044660B1FFF716FF30B1014605
:2048E0001022384609F024F9002847D02046FFF76FFFDFF8D0A0DAF80030142B41D0DFF879
:20490000C8B04146DBF8000005F0D4FC064600283BD02948FFF77EFB044690B3014627485E
:20492000FFF71AFB2648FFF775FB034600283CD0446001467068FFF7E3FADAF8003031460C
:2049400001336660DBF80000CAF8003005F0FCFC4FF0000E28686968AA68EB6804F1080695
:204960000FC684F824903A462946C4F818E00220C4F81CE0C4F820E0FFF776FE2046BDE884
:20498000F88F00242046BDE8F88F034641460422DBF8000005F0E0FB06460028F1D00023E9
:2049A00080E84800FFF7A6FAB3E7214602481C46FFF74EFBE2E700BF3C010020F00D0020C3
:2049C00030010020EC0D00201C01002010B504460E48FFF793FA40B1A04202D106E08442F6
:2049E00004D0FFF701FB0028F9D110BD21460748FFF7D4FA21460648FFF72AFB221D114652
:204A0000BDE810400120FFF72FBE00BFEC0C00201001002038B505460B48FFF76FFA044661
:204A200028B90DE02046FFF7DFFA044640B110222946201D09F07CF80028F3D1204638BDA6
:204A40000024204638BD00BFEC0C0020F8B50F460546FFF7DFFF0646B8B128686968AA68B7
:204A6000EB68341D0FC447B9012333772A4629460020FFF7F9FD3046F8BD394606F1140051
:204A800007F078F900233377F0E70548FFF7C2FA06460028EFD001460248FFF75DFADCE737
:204AA00010010020EC0C002038B50B48FFF726FA044670B1251D284601F050FA08B1437C89
:204AC0002BB92046FFF790FA04460028F2D1284638BD0546FBE700BFEC0C002038B50F482C
:204AE000FFF70CFA70B104460C4D237F04F1140013B907F047F930B92046FFF775FA04464A
:204B0000002CF2D138BD2046FFF760FF2846FFF7F5F90446002CE8D1F4E700BFEC0C0020C3
:204B200070B4561E0E44B14213D20C4625786378023403EB05239BB2184480B2834284BFBA
:204B4000013080B2A642F1D8023A22F00102023211448E4201D070BC7047337870BC1B02EF
:204B6000184480B2834284BF013080B2704700BF30B5134B134D1C782A796B79C4EB022235
:204B8000134483B09BB2ADF80630BDF8063005F108011844202280B2FFF7C2FFBDF8062017
:204BA00004F12801294492B2FFF7BAFF18B94FF6FF7003B030BD40BA80B203B030BD00BFC7
:204BC000592A0020FC2B0020F8B502234FF0000C9E461846304F314D3A78314E2832A91843
:204BE0004C783370E4000734A04244DC8318E95C2B44012912D019D3632907D1BCF1000FC6
:204C000044D104F083FAA0B90120F8BD01F0C001802919D0C02927D040291FD05B7802305E
:204C20001844C0B24FF0010C8646DDE70130C0B2F8E732783B781B4913440B445B780232DA
:204C40001A4432700020F8BDBCF1000F1BD102440221042007F07AF90220F8BDBCF1000F4D
:204C6000D2D086F800E0CFE7BCF1000F08D12B7EFF2BECD1C8E7BCF1000F0AD10020F8BD3E
:204C800086F800E0F3E786F800E0E0E786F800E0B7E786F800E0F1E7592A0020FC2B00209B
:204CA0005A2A0020242C002070B4C478134A0C44E4B2D47083780E0A3344DBB29370457822
:204CC0009E4255700078107003D90135EDB2557085B1C9B28C420BDA0133DBB293703BB9A5
:204CE00053780133DBB2537013B913780133137070BC704701301070EBE700BFF02B0020F7
:204D000010B5084C014620681430FFF7CDFF064A2368507814789178D2781C7558759975B7
:204D2000DA7510BDF42F0020F02B00203A20FFF71FBF00BF08B5FFF71DFC07F0F5F901F04A
:204D4000A1FA00210E4B03F1280223F8021F9342FBD100210B4B03F5F07283F8251030335F
:204D60009342FAD14FF480600021074A074B108003F5A072198220339A42FBD108BD00BFF8
:204D8000DE310020F82F00203E2A00200C320020F8B5114E3478F4B1104F04F127033D8817
:204DA000AB4203DB00233B803370F8BD0C4BA5F128021919121B184608F08AFF0021034633
:204DC0002C1BA4B2A4F1280210123C8003F8232C03F8240C3170F8BD592A0020E82B0020F8
:204DE000242C0020F0B50746DFF888C01E4CBCF800600136B6B2B6F5FA4F2BD2350A45EAB6
:204E00000625ADB2194A96461346188A2033A842EFD0A342F9D10023ACF80060108A203210
:204E200028B101330A2BF9D100263046F0BD5C010EEB04063582718287B1354638687968DF
:204E4000BA68FB680FC50A4A0EEB0403127930461A75F0BD10254FF48056D3E74EF80470A6
:204E60007760B760F760EEE74C3300200C3200207C2A00203E2A00200023074A32F8021F0E
:204E8000814203D00133142BF8D170470021034A22F81310704700BFDE310020E031002008
:204EA0002DE9F04F042887B02DD0BD4ADFF818B3DFF81893DFF818A30328DBF80050C9F871
:204EC0000020CAF800202CD0022800F09680052800F04B8112F83C3CA2F13C0403F0F00380
:204EE000602B00F0DF80AF4BAF4E0193DFF8E482AE4B00221A70019B328088F800201A70F3
:204F000007B0BDE8F08FA74BA74EDFF8CC820193B8F80030002B40F06181A44BDFF8B482FD
:204F2000E7E795F8251001F00F01032900F0EA800229D8D1A2F13C0404F118030293994B2A
:204F4000994E019340234FF0020C4FF0040E0020602284F8351084F83CC084F83DE084F8E5
:204F60003E0084F83F30338084F834202B7D029F84F830306B7D84F83130AB7D84F8323095
:204F8000EB7D84F833302B7E84F82C306B7E84F82D30AB7E84F82E30EB7E84F82F302B8A8B
:204FA00023856B8A638595E80F0087E80F008049A1F11000FFF732FA95F8253013F01003DD
:204FC00040F04B81402284F8363084F837200022062133887748283B05791E1208466371C8
:204FE0002671E571A17184F83B2084F83A202287FFF7BEFDC043208720E100216E486A4E71
:20500000C2786A4B0132DFF8D081D2B2C27031801970A8F8001062B982780132D2B28270E8
:205020003AB942780132D2B2427012B902780132027095F8251001F0FD02052A00F0878098
:20504000002900F08D80AA8B002A00F07F8295F82620501E85F82600002A40F0818095F80E
:205060002720082A00F0B682481E012840F2AF82042A94BF0324302401F00F0198BF944075
:20508000481E013285F8272085F82640072867D8DFE810F00801F7001001FE006600FE0028
:2050A0006600FE002379404E61791B0230885D18854200F3D880207A28310B44FF28338010
:2050C00000F0D18000213D4D363A384BDFF804812A60A279197088F80010002A40F01081EC
:2050E0000122019388F80020FFF76EFD0128019B00F0F081C0F0FA80022840F00181294B58
:205100000193A0E0AB8B002B7FF4EDAE0823254A254E01921370DFF8C08002F0F3FB019B56
:205120001B7813F0200200F01D8200231422244C85F82530A8F8003004F1180384F83520DC
:2051400002933C233380502384F834300EE795F826200132D2B2782A85F8262000F0898078
:20516000104ADFF870800192C3E6164B1B681B8A002B3FF4B8AE002308210A48DFF8588038
:20518000094E0C3AC9F800200190CAF80020CBF80030A8F800303380017002F0B3FBB7E6FA
:2051A000382C0020E42F0020E82B0020592A0020142C00207C2A002028110020E82F0020AC
:2051C000FC2B0020EC2F0020F42F0020F02F0020EC2B0020582A00200832002000204FF039
:2051E0001108924A924C126803F1080149BA157DA185E085118A303321859BB2508AA3F1E6
:205200002801E5710D12257160853380617184F8068004F118050FCA85E80F00294604F123
:205220000800FFF7FBF8834B04F13C0240461A60FFF79EFCC04380B258B1E08500236022A4
:205240006370227063800023019A137007B0BDE8F08F4FF6FF73E385F0E7002384F83730EE
:2052600084F83630B3E6744BDFF8DC810193734B3FE60022704985F825200191DFF8C881FA
:2052800037E66D4B6A4C019304F11803029359E6694B674C019304F118030293112384F8BB
:2052A00035304EE7644B624C019304F118030293122147E60423604A0192137002F022FB68
:2052C000B8F80020DAF80030C9F80030002A00F05D81AB8B002B00F059811822544C3C339F
:2052E0003380A31884F8352002932CE71A7802F1280121444878083202EBC00229601A70F8
:2053000001934F4B18460293FEF762FF019B002800F081811F462A6811783C2900F20E81FA
:20532000DFE811F0F9000C010C010C010C010C01CA000C010C010C010C010C010C010C0146
:205340000C010C010C016C000C010C010C010C010C010C010C010C010C010C010C010C011E
:205360000C010C010C010C010C010C010C010C010C010C010C010C010C0152004E000C01D7
:205380000C010C010C010C010C010C010C010C010C010C010C010C01DB004E003D0098F87B
:2053A0000030980740F12781590600F1C78043F0400388F80030FFF707FC012840F0B880FE
:2053C0001D4A3B46019294E598F8003013F0040E40F0B480387843F0040300F12802224435
:2053E000D17888F80030002940F06482517800F1080303EBC1032A603B708DE70197FFF7C7
:20540000C7FC1120E28DA071019B002A40F05781678D002F5ED00B4B228DDFF810801D462A
:205420000192C8F8003003F5A07415E0EC2F0020FC2B0020F02F0020E42F0020592A002051
:20544000142C00200C320020582A00202035A542C8F8005080F02D812B8A002BF6D09F42FB
:20546000F4D16B8A13B1019A9342EFD12B682BB96B681BB9AB680BB9EB6833B110222946B1
:205480009B4808F055FB0028E0D133880022303B3380984B02211846DFF86C820193964B6F
:2054A000CBF80020A8F800200170C9F80030CAF8003002F027FA2BE50197FFF769FC0622B7
:2054C0001046A271FFF754FB4FF6FF729042019B00F0FF80874A01920BE53A200197FFF74F
:2054E00047FB4FF6FF729042019BF3D11A7883490193885C02F09CF8019B1A782832A118E5
:205500004978A05C06F0FEFC0128019BE2D03288002ADFD0F3E598F80030D9070ED443F047
:20552000010388F80030FFF74FFB01283FF448AF66D302283FF4E3AD2A68EDE6121B01214A
:20554000042006F003FD6B4B01937CE601F00F0103297FF405AE0823664A0192137002F04F
:20556000D1F9DCE513F010011FD0012004211123634C85F82720A8F8002004F11802A883B6
:2055800085F82510029284F83530DAE5019B1B7899077FF5C2AC10233C22594C328084F810
:2055A000353004F118030293CDE5B8F8002052B1D80777D5A983EB8B9A4288BFA8F800309C
:2055C000B8F80020AA83002385F827307AE6052A7FF44EAD00228023464985F825200B7049
:2055E000019102F08FF91423454C84F8353004F118030293A5E543F0020388F80030DAE61F
:205600003B7803F1280222445178083303EBC1032A603B7080E602980193FEF795FE019BB0
:2056200000287FF477AE217EFF2900F04C8148F2FE05228BAA4200F072812089A84200F0EA
:205640006B8178B9618969B9A18959B9E18949B9218A39B9618A29B9A18A19B9E18A00297E
:205660003FF438AF82B9628B72B9A28B62B9E28B52B9228C42B9628C32B9A28C22B9E28C04
:20568000B2F5807F3FF426AF3388B3F5A06F00F22A83E379012B40F21D83013BE371154B01
:2056A0000193D0E5AB8B002B85D01A46A8F8003089E700220421012006F048FC1FE5019311
:2056C000FFF756FA4FF6FF729042019B7FF402AF9EE6678D002F3FF4FDAE228D0192002A4B
:2056E0003FF4F8AECDF81480064D0493A04611E0042C0020E42F00202C2C0020242C00204C
:20570000FC2B0020F82F002008320020B64B30359D424DD895F82540002CF7D02A8ABA42A2
:20572000F4D16A8A019B9A42F0D110222946AF4808F0FEF90028E9D103944446024694F819
:205740003510AB484F07049BDDF814800190CBF80050027000F1EF80308894F834E0039F43
:205760004FEA1E1E2838A0EB8E0007F00F0E80B2BEF1020F308000F0A682BEF1010F00F0BE
:20578000E48010B98F0700F0E6806869E76A874200F0E180880707D5BEF1010F3FF488AD22
:2057A000BEF1020F00F0A782102384F83530C8E4444694F83520049B02F03F02022ADDF812
:2057C000148051D08A4A019294F8352052073FF590AB14234FF03C0E502094F8335094F839
:2057E0002F1084F82F5094F8325094F82E20013184F83530A6F800E094F82D3094F831E070
:2058000084F8340084F82E5094F82C0094F83050C9B284F8331084F8322084F8313084F8B9
:205820002DE084F8300084F82C5061B90132D2B284F832203AB90133DBB284F8313013B9BB
:20584000431C84F83030228D638D684D029F6285238595E80F0087E80F0005F1100128460A
:20586000FEF7DCFDFFF7B3BB0022624901E0142AA8D031F812000132B842F8D100255E4A94
:20588000294605E001310A2902F1300200F0CF8292F82500002800F032820728F2D1002D4F
:2058A00000F0CA8292F826E095F82600864588BF1546E7E700F12A027146042006F046FBFF
:2058C0004B4B0193BFE448F2FE02208990427FF401AE228B002A7FF4FDAD628B72B9A28BEB
:2058E00062B9E28B52B9228C42B9628C32B9A28C22B9E28CB2F5807F3FF4ECADFF293FF44F
:20590000E9AD3E480293FEF743FC024660B1384B0193029BFFF7EDBA002AF2D1DDE721899D
:2059200091427FF4D7ADECE70221012006F00EFB2F4B019387E4202185F825200293017005
:2059400001F0E0FF029BFFF7D4BA01F03F0CBCF1020F7FF416AFC90601D5A98BC1B90EF1D2
:20596000FF3EBEF1070F3FF6C4AA01A252F82EF0DF5D00003D5A0000D55B0000A75B000072
:20598000775B00005D5B0000A9570000055A000005F1180004930392FFF786F9184994F882
:2059A000300091F800E0039A8645049B6FD095F82510039101F00F01013907293FF699AACF
:2059C00001A050F821F000BF575A0000275A0000D55B0000A75B0000775B00005D5B000020
:2059E000A9570000055A0000A8310020042C0020E42F0020E0310020F82F0020142C0020F4
:205A0000F02B0020019A1278D2077FF572AA002110220293019B85F825101A7001F072FF9B
:205A2000029BFFF766BA01990978CF0706D594F8351001F03F01122900F0DA812022039387
:205A4000019B1A7001F05EFF0021DBF80020039B82F82510B8E6019A1278D20740F1BF8164
:205A600003214022002385F8251030880199AB830A7018B142230B70FFF742F90023DFF8FD
:205A80003884A8F8003001F03DFFFFF748BB94F831C0487860458AD18F7894F832C00397F8
:205AA000674584D1C97894F833C061457FF47FAF687695F827C09DF80C0085F818E0A87658
:205AC000E976BCF1000F22D195F8241095F826E095F82200A1EB0E01A1EBD001C9B24FFAF9
:205AE00081FEBEF1000F0844BCBF49424FFA81FE95F82310C0B2A1EB91017144C9B285F852
:205B0000220001EBD00085F8240085F8231001214FF0000E95F82500019F0390397000F069
:205B20000F0195F824000139A5F81CE085F8260007293FF6DEA901A050F821F0615A00008D
:205B4000275A0000D55B0000A75B0000775B00005D5B0000A9570000055A0000019A127884
:205B6000D1077FF5C6A90721002285F8251085F82620FFF7BEB93088002840F0868094F89C
:205B80003520D2077FF5B5A90722002385F8252085F826300120FFF7B3F81023019A137011
:205BA00001F0B0FE00E6308818B10393FFF7A8F8039B94F8352012F001027AD0019B1B78B6
:205BC000DF0772D50023072285F8263085F82520AB83DFE794F83520D00721D50399C906AA
:205BE0001ED4AA8B002A7FF484A93088013080B2FFF786F8019F32883B7843F0100139702B
:205C000012B143F012033B7001F07CFE012108220023A98385F8252085F82730FFF73EBB43
:205C2000920610D5628FD9F8001052BA92B294F83A0094F83BE0114432884EEA0020121AC5
:205C4000C9F800103280308858B1039AD70608D4019902930A7842F002020A70FFF750F80B
:205C6000029B94F8360094F83720298C02EB002292B28A4202D8002A18BF1146019AE983D5
:205C8000127894073FF435A9F8E60393FFF738F894F83520039B12F0010F7FF475AF328852
:205CA000002A7FF481ADFFF724B9062385F8253070E701990978C807F1D50521AA8385F874
:205CC0002510FFF716B901F03F0CBCF1120F7FF458AD40E600220320114606F037F9724BA3
:205CE0000193FFF7B0BA4FF4A0620021022006F02DF9FFF704BA41F00201FFF723B93025FD
:205D00006A4B05FB01354FF0010E4FF0030C4FF000084FF00409664BBDF80420187859787E
:205D20002F826A829F78DA78624B28766976EA760FCB85E80F0094F82D2094F82C1094F850
:205D40002E306A7585F826C085F824C085F825E0A5F81CE02975CBF80050AF7685F8228032
:205D600085F8278085F82390AB7594F82F307046EB75FEF7C5FF94F8343003F0F002502AA6
:205D800016D91B09053B9B0007E0022914D090F83D206AB1904498450ADA04EB080292F807
:205DA0003C10104621B10129EFD108F10108F2E73D4B0193FFF77CBA92F83D100429E6D1A7
:205DC00092F83E1092F83F30374A43EA0123402B28BF40230192EB832B84FFF769BA94F816
:205DE000352002F03F02022A7FF483A8FFF760BA94F8341001F0F000502830D909090539BF
:205E0000019F8900A01890F83CE08446BEF1000F0BD0BEF1010F45D0BEF1020F0ED09CF894
:205E20003D0010B102449142ECDC019717E0002D7FF469AFFFF74EBB154623E590F83DE035
:205E4000BEF1040FEBD190F83E1090F83F20019742EA0122402A28BF4022EA832A8403212E
:205E600094F82C2094F82D0085F825102A7594F82E1094F82F206875A975EA75012002938B
:205E8000FEF73EFF00224221029BDFF82C801A70019BAA833280A8F80020197001F032FDBD
:205EA000FFF73DB90132BEE7E42F0020F82F002028110020042C002008320020054A030C43
:205EC00002EA00225BBAC0F307209BB2104343EA0040704700FFFF0050B110B5044603F000
:205EE000BFFA044B2146BDE81040186804F0FEB9704700BF4801002008B504F0DDFC034B5C
:205F000003491868BDE8084004F0A8B848010020D95E0000F8B50C4A05461E461068079B08
:205F20009DF8182004F018F9044650B12F686968AA68EB68076041608260C360467403F0BD
:205F40008FFA2046F8BD00BF48010020024B0146186804F02DBA00BF4801002070B50546EE
:205F60000C4E306804F0CCF88DB1044630B90EE02146306804F088F8044640B110222946C9
:205F8000204607F0D5FD0028F2D1204670BD0024204670BD48010020024B0146186804F02C
:205FA00089B900BF4801002008B5FFF7D7FF30B1034B01461868BDE8084004F0F9B908BDA0
:205FC0004801002070B5054610200E4604F074FB0849044604F0A2FB00B170BD3246294610
:205FE000204604F0D5FB324629462046BDE8704003F006BAB8E300002DE9F04F964C85B01B
:20600000E379964DFF2B06D0954F00233B802B7005B0BDE8F08F2B7803F12C022244117956
:20602000FF29F1D0E11891F829100029ECD14FF0140E8B4F8B4E3888DFF83482403383423D
:2060400086F800E0C8F8001080F2F18023445A78002ADAD0DFF81C9204F1080A1A78012AD9
:206060002BD12289C8F8003042B9628932B9A28922B9E28912B9228A002A46D053F8020F34
:2060800002AA596803C25046FFF768FF0246C9F8000088B3FFF75AFF83460028B5D0D8F802
:2060A000000008220230594607F042FDC0B9D9F800305A7C0AB902225A74287832782C3004
:2060C000831823445B78398802EBC302D2B213188B42327023DA23445A78002ABED194E7F0
:2060E0005846012202A904F079F900288DD00222D9F800305A74E0E705230190009302A998
:2061000002235046FFF706FFD7E7628A002AB5D1A28A002AB2D1E28A002AAFD175E72044C0
:206120000430FEF755F8DFF85081C8F8000000283FF46BAF23897BB963896BB9A3895BB9DC
:20614000E3894BB9238A3BB9638A2BB9A38A1BB9E38A002B3FF459AF434E3046FEF738F85D
:2061600000287FF452AF40F2FF23228B9A420BD1638B4BB9A38B3BB9E38B2BB9238C1BB9E1
:20618000638CB3F5807F54D0DFF8F0904846FEF71FF8D8F80030864698427FF436AF96E8D8
:2061A0000F0089E80F002B784B4418330FCB86E80F0000264FF0280C3A20FF218822E023BC
:2061C0004FF002084FF0600984F8296084F8282084F82C3084F805C0A071E171668026710C
:2061E0005EF8020FDFF898C0DEF80820DEF80C30DEF804102E70ACE80F001C4BACF80E6055
:206200001A685B68C4F8422084F84080CCF806306670668584F8418084F80090C4F84A6075
:20622000FEF784FD5023C0433B806085F0E6104676E794F82430FF2BA6D196E80F0006F144
:20624000100E8EE80F002B78D8F800E0334428330FCB86E80F00ACE7FC2B0020592A0020A2
:20626000E82B00205B2A0020042C0020F42B00209C1200209812002094120020142C0020F9
:206280002C2C0020014805F05BBE00BF5C01002008B5064801F092F900220120FD21044BBC
:2062A000187099705A70DA7008BD00BF456D0000A012002030B414780B7A84F00204A342DD
:2062C00015D00B891BB94B89B3F57F4F30D001221E4D01F108032C68824004F108012960BF
:2062E000D2B203CB20606160104630BC70474C7A53789C42E5D18C7A93789C42E1D1CC7A06
:20630000D3789C42DDD10C7B13799C42D9D14C7B53799C42D5D18C7B93799C42D1D1D37915
:20632000CA7B9A42CDD1032101FA00F3DAB2DBE78B89FE2BCBD10224044DC9892A6804FA0C
:2063400000F322F8021B2A60DAB2CDE77019002010B5124C0220A17904F094F9A379112B68
:2063600009D0062B07D03A2B0FD0BDE810400021012004F087B9218D638D0120BDE81040D9
:206380009942A8BF194604F07DB9218D0120BDE8104049BA89B204F075B900BFFC2B002008
:2063A00010B5084C2378012B01D0002010BD01460822A01C07F0BCFB00280CBF20460020EB
:2063C00010BD00BFA012002008B50146102004F067F9044B00219B6803489847BDE808404D
:2063E000FBF728B81CE40000ED63000010B50C4611462046FFF7E6FD044B1B6813B19B6835
:2064000020469847024B1C6010BD00BFAC120020781900202DE9F843184D00222B469C78F6
:20642000713334B101320C2AF9D14FF0FF30BDE8F883C2EBC20402EB041405EB040888F81E
:206440000110074604F078F8DFF838900C4B99F800101E68401A2F5588F802000E4404F0B7
:206460006BF899F800200334821A3146281907F0B7FB98F80200BDE8F88300BFB41200207D
:20648000801900205C2A00202DE9F8430746144652BB88464FF0FF369146644D35F8063C5F
:2064A0007BBB731C43D00134022C05F1B805F5D1721C16D0B82404FB06F4DFF874910F20D4
:2064C00009EB0405A5F812802F8204F0F5F80146284604F01DF904F1180048444021FDF751
:2064E00067FC3046BDE8F883514D2B8A834227D0B5F8C830BB4243D04FF0FF363046BDE850
:20650000F8832846FDF768FC98B14A4B25F8069C03F24C51E0B29A7822B11A78824208BF77
:2065200083F8029071338B42F5D1731CBBD166B2B9E7711CB7D135F8063C002BB3D1F6E734
:206540006B8A002BD4D00F2004F0B6F80146284604F0E4F80028CBD00026F7B238462146AA
:20656000FFF758FF00281ADB0028C5DDB82303FB0655AB8A76B21844A8823046BDE8F8833A
:20658000B5F8CA30002BB7D00F2004F095F80146294804F0C3F801260028ADD0DDE76B8A06
:2065A000C3B1002E3CD02148FDF716FC90B10022204B10466A8203F24C5102E071338B42C9
:2065C00026D09A78002AF9D01A78002AF6D19A700130F3E7B5F8CA30002B8DD0002E8BD16F
:2065E0001648FDF7F9FB002886D0002210469646104BA5F8CA2003F24C519A782AB11A7890
:20660000012A04BF83F802E0013071338B42F4D100283FF471AF21463846FFF7FBFEA3E7EF
:20662000B5F8CA30002BDBD166E700BF1818002000180020B4120020B8180020D01800206A
:206640002DE9F84315090F2D0646994602F00F040FD00F2C21D09DBB2246A0462F46C2F186
:206660001002F019002107F0C9FBA4BB7DB9BDE8F8830F2C28D01027A0463A463D463046A5
:2066800007F0AEFA07EB08020F2AEEDCE7E749463046BDE8F843FDF74DBFB5B91024DFF830
:2066A0006090D9F8007038687968BA68FB6830607160B260F3603C44C9F80040BDE8F8833C
:2066C0002A462F46A046DAE710254FF010082A4644462F46D3E7DFF82890C8F11000D9F850
:2066E000007030443946224607F07AFA022CE2D10A2DE0D8FF22FE23F2723373DBE700BFC7
:20670000701900202DE9F04F002689B00F20DFF8D892A94D03F0D0FF04F0A0F889F8006087
:206720002E7003F0F5FEA54F3860042003F0B2FF3B68A3491A7800B25C78086002F0F80187
:20674000C02944EA022466D0E02954D12A7893F804A093F802E0D878C4F30A04531D21466E
:2067600040EA0E2052462B70FFF78EFEB0F1FF3F80464DD0B823934AB34603FB00239B8A53
:206780000122A34234BF002301230092019303F0D3FE2B7883423BD803F0CEFE2B7899F85F
:2067A0000090C51A09EBCA0A874AAA44BAF57A7F15602DD8BBF1000F06D039680BEB090090
:2067C00019442A4607F00CFA002C40F0C180009B002B40F0E9807D4B4D441D807C4C2368AA
:2067E00023B1FFF7B5FD23685B68984700F034FF09B0BDE8F08FB0463446DFF8E8B100967A
:206800002A78995C01F0E00060284AD041291ED009B0BDE8F08F297893F802E0D878C4F324
:206820000A040B1D324640EA0E2021462B70FFF72BFEB0F1FF3F8046EAD0B82261493B68AB
:2068400002FB0012012102F1220B0091D8E75946501CC0B2034403F12000D3F800A0D3F889
:2068600004C0D3F808E0DE6810338342C1F800A0C1F804C0C1F808E0CE6001F11001ECD1EE
:2068800000200646019018685B6808604B6099F8003029322833B2462A7089F80030009E4D
:2068A00075E7981890F801A002321344494E4FFA8AF2002A3360B8BF01330192B8BF3360B7
:2068C000CA0657D511F0080040F0C28133681A461B78C3F3830343F060038BF8003012F823
:2068E00001EBABF802004FEA9E0303F0300343EA8E1332608BF8013011F00403029305D180
:20690000336813F8012B8BF80620336011F0030100F0A480304B5B5C8BF807301AF0400F0B
